{
  "contractName": "LearningSolidity",
  "abi": [
    {
      "inputs": [],
      "name": "getBlockDifficulty",
      "outputs": [
        {
          "internalType": "uint256",
          "name": "",
          "type": "uint256"
        }
      ],
      "stateMutability": "view",
      "type": "function"
    },
    {
      "inputs": [],
      "name": "getGasLimit",
      "outputs": [
        {
          "internalType": "uint256",
          "name": "",
          "type": "uint256"
        }
      ],
      "stateMutability": "view",
      "type": "function"
    },
    {
      "inputs": [],
      "name": "getBlockNumber",
      "outputs": [
        {
          "internalType": "uint256",
          "name": "",
          "type": "uint256"
        }
      ],
      "stateMutability": "view",
      "type": "function"
    },
    {
      "inputs": [],
      "name": "getBlockTimeStamp",
      "outputs": [
        {
          "internalType": "uint256",
          "name": "",
          "type": "uint256"
        }
      ],
      "stateMutability": "view",
      "type": "function"
    },
    {
      "inputs": [],
      "name": "getGasLeft",
      "outputs": [
        {
          "internalType": "uint256",
          "name": "",
          "type": "uint256"
        }
      ],
      "stateMutability": "view",
      "type": "function"
    },
    {
      "inputs": [],
      "name": "getMsgData",
      "outputs": [
        {
          "internalType": "bytes",
          "name": "",
          "type": "bytes"
        }
      ],
      "stateMutability": "pure",
      "type": "function"
    },
    {
      "inputs": [],
      "name": "getMsgSender",
      "outputs": [
        {
          "internalType": "address",
          "name": "",
          "type": "address"
        }
      ],
      "stateMutability": "view",
      "type": "function"
    },
    {
      "inputs": [],
      "name": "getMsgValue",
      "outputs": [
        {
          "internalType": "uint256",
          "name": "",
          "type": "uint256"
        }
      ],
      "stateMutability": "payable",
      "type": "function"
    },
    {
      "inputs": [],
      "name": "getGasPrice",
      "outputs": [
        {
          "internalType": "uint256",
          "name": "",
          "type": "uint256"
        }
      ],
      "stateMutability": "view",
      "type": "function"
    },
    {
      "inputs": [],
      "name": "getOrigin",
      "outputs": [
        {
          "internalType": "address",
          "name": "",
          "type": "address"
        }
      ],
      "stateMutability": "view",
      "type": "function"
    }
  ],
  "bytecode": "0x608060405234801561001057600080fd5b506103d5806100206000396000f3fe6080604052600436106100915760003560e01c80637a6ce2e1116100595780637a6ce2e11461016d578063a17042cc14610198578063c8e7ca2e146101b6578063ca49a543146101e2578063df1f29ee1461020d57610091565b806312e05dd1146100965780631a93d1c3146100c157806342cbb15c146100ec578063455259cb1461011757806351be4eaa14610142575b600080fd5b3480156100a257600080fd5b506100ab610238565b6040516100b89190610317565b60405180910390f35b3480156100cd57600080fd5b506100d6610240565b6040516100e39190610317565b60405180910390f35b3480156100f857600080fd5b50610101610248565b60405161010e9190610317565b60405180910390f35b34801561012357600080fd5b5061012c610250565b6040516101399190610317565b60405180910390f35b34801561014e57600080fd5b50610157610258565b6040516101649190610317565b60405180910390f35b34801561017957600080fd5b50610182610260565b60405161018f91906102d8565b60405180910390f35b6101a0610268565b6040516101ad9190610317565b60405180910390f35b3480156101c257600080fd5b506101cb610270565b6040516101d99291906102f3565b60405180910390f35b3480156101ee57600080fd5b506101f761027d565b6040516102049190610317565b60405180910390f35b34801561021957600080fd5b50610222610285565b60405161022f91906102d8565b60405180910390f35b600044905090565b600045905090565b600043905090565b60003a905090565b60005a905090565b600033905090565b600034905090565b3660008036915091509091565b600042905090565b600032905090565b61029681610343565b82525050565b60006102a88385610332565b93506102b583858461037f565b6102be8361038e565b840190509392505050565b6102d281610375565b82525050565b60006020820190506102ed600083018461028d565b92915050565b6000602082019050818103600083015261030e81848661029c565b90509392505050565b600060208201905061032c60008301846102c9565b92915050565b600082825260208201905092915050565b600061034e82610355565b9050919050565b600073ffffffffffffffffffffffffffffffffffffffff82169050919050565b6000819050919050565b82818337600083830152505050565b6000601f19601f830116905091905056fea264697066735822122003edd48bde08e3f05dde508b1355517b07cf781188bfbffa7a9f50a24a688b9a64736f6c63430008060033",
  "immutableReferences": {},
  "source": "// SPDX-License-Identifier: GPL-3.0\n\npragma solidity ^0.8.6;\n\ncontract LearningSolidity{\n    \n function getBlockDifficulty() public view returns(uint){\n     return block.difficulty;\n }\n \n function getGasLimit() public view returns(uint){\n     return block.gaslimit;\n }\n \n function getBlockNumber() public view returns(uint){\n     return block.number;\n }\n \n function getBlockTimeStamp() public view returns(uint){\n     return block.timestamp;\n }\n \n function getGasLeft() public view returns (uint){\n     return gasleft();\n }\n \n function getMsgData() public pure returns(bytes calldata){\n    return msg.data; \n }\n \n function getMsgSender() public view returns(address){\n     return msg.sender;\n }\n \n function getMsgValue() public payable returns(uint){\n     return msg.value;\n }\n \n function getGasPrice() public view returns(uint){\n     return tx.gasprice;\n }\n \n  function getOrigin() public view returns(address){\n     return tx.origin;\n }\n    \n}",
  "sourcePath": "/Users/mateenmustafa/Desktop/defi-dapps-solidity-smart-contracts/step12_solidity_special_variables/contracts/LearningSolidity.sol",
  "compiler": {
    "name": "solc",
    "version": "0.8.6+commit.11564f7e.Emscripten.clang"
  },
  "schemaVersion": "3.4.3",
  "updatedAt": "2021-09-15T07:39:51.260Z",
  "devdoc": {
    "kind": "dev",
    "methods": {},
    "version": 1
  },
  "userdoc": {
    "kind": "user",
    "methods": {},
    "version": 1
  }
}