{
  "contractName": "LearningSolidity",
  "abi": [
    {
      "inputs": [],
      "name": "set_book_detail",
      "outputs": [],
      "stateMutability": "nonpayable",
      "type": "function"
    },
    {
      "inputs": [],
      "name": "book_info",
      "outputs": [
        {
          "internalType": "string",
          "name": "",
          "type": "string"
        },
        {
          "internalType": "string",
          "name": "",
          "type": "string"
        },
        {
          "internalType": "uint256",
          "name": "",
          "type": "uint256"
        },
        {
          "internalType": "bool",
          "name": "",
          "type": "bool"
        }
      ],
      "stateMutability": "view",
      "type": "function",
      "constant": true
    },
    {
      "inputs": [],
      "name": "get_details",
      "outputs": [
        {
          "internalType": "string",
          "name": "",
          "type": "string"
        },
        {
          "internalType": "uint256",
          "name": "",
          "type": "uint256"
        }
      ],
      "stateMutability": "view",
      "type": "function",
      "constant": true
    }
  ],
  "bytecode": "0x608060405260405180608001604052806040518060400160405280601781526020017f4275696c64696e6720457468657265756d20444170707300000000000000000081525081526020016040518060400160405280601081526020017f526f626572746f20496e66616e7465200000000000000000000000000000000081525081526020016002815260200160001515815250600460008201518160000190805190602001906100b192919061010d565b5060208201518160010190805190602001906100ce92919061010d565b506040820151816002015560608201518160030160006101000a81548160ff021916908315150217905550505034801561010757600080fd5b50610211565b828054610119906101b0565b90600052602060002090601f01602090048101928261013b5760008555610182565b82601f1061015457805160ff1916838001178555610182565b82800160010185558215610182579182015b82811115610181578251825591602001919060010190610166565b5b50905061018f9190610193565b5090565b5b808211156101ac576000816000905550600101610194565b5090565b600060028204905060018216806101c857607f821691505b602082108114156101dc576101db6101e2565b5b50919050565b7f4e487b7100000000000000000000000000000000000000000000000000000000600052602260045260246000fd5b610608806102206000396000f3fe608060405234801561001057600080fd5b50600436106100415760003560e01c80633e9a2451146100465780638574ed0d14610050578063b87f86b714610071575b600080fd5b61004e610090565b005b61005861016c565b6040516100689493929190610457565b60405180910390f35b6100796102bb565b6040516100879291906104aa565b60405180910390f35b60405180608001604052806040518060600160405280602181526020016105b26021913981526020016040518060400160405280600c81526020017f43687269732044616e6e656e00000000000000000000000000000000000000008152508152602001600181526020016001151581525060008082015181600001908051906020019061011f92919061035d565b50602082015181600101908051906020019061013c92919061035d565b506040820151816002015560608201518160030160006101000a81548160ff021916908315150217905550905050565b60608060008060046000016004600101600460020154600460030160009054906101000a900460ff168380546101a19061053f565b80601f01602080910402602001604051908101604052809291908181526020018280546101cd9061053f565b801561021a5780601f106101ef5761010080835404028352916020019161021a565b820191906000526020600020905b8154815290600101906020018083116101fd57829003601f168201915b5050505050935082805461022d9061053f565b80601f01602080910402602001604051908101604052809291908181526020018280546102599061053f565b80156102a65780601f1061027b576101008083540402835291602001916102a6565b820191906000526020600020905b81548152906001019060200180831161028957829003601f168201915b50505050509250935093509350935090919293565b60606000806000016000600201548180546102d59061053f565b80601f01602080910402602001604051908101604052809291908181526020018280546103019061053f565b801561034e5780601f106103235761010080835404028352916020019161034e565b820191906000526020600020905b81548152906001019060200180831161033157829003601f168201915b50505050509150915091509091565b8280546103699061053f565b90600052602060002090601f01602090048101928261038b57600085556103d2565b82601f106103a457805160ff19168380011785556103d2565b828001600101855582156103d2579182015b828111156103d15782518255916020019190600101906103b6565b5b5090506103df91906103e3565b5090565b5b808211156103fc5760008160009055506001016103e4565b5090565b610409816104f6565b82525050565b600061041a826104da565b61042481856104e5565b935061043481856020860161050c565b61043d816105a0565b840191505092915050565b61045181610502565b82525050565b60006080820190508181036000830152610471818761040f565b90508181036020830152610485818661040f565b90506104946040830185610448565b6104a16060830184610400565b95945050505050565b600060408201905081810360008301526104c4818561040f565b90506104d36020830184610448565b9392505050565b600081519050919050565b600082825260208201905092915050565b60008115159050919050565b6000819050919050565b60005b8381101561052a57808201518184015260208101905061050f565b83811115610539576000848401525b50505050565b6000600282049050600182168061055757607f821691505b6020821081141561056b5761056a610571565b5b50919050565b7f4e487b7100000000000000000000000000000000000000000000000000000000600052602260045260246000fd5b6000601f19601f830116905091905056fe496e74726f647563696e6720457468657265756d20616e6420536f6c6964697479a2646970667358221220989e9f73ebbadfc37e1594eb5bf1e968679e1fff6e37dac253907c8c0009fe0d64736f6c63430008060033",
  "immutableReferences": {},
  "source": "// SPDX-License-Identifier: GPL-3.0\n\npragma solidity ^0.8.6;\n\ncontract LearningSolidity{\n    \n\n   // Declaring a structure\n   struct Book { \n      string name;\n      string writter;\n      uint id;\n      bool available;\n   }\n  \n   // Declaring a structure object\n   Book book1;\n  \n   // Assigning values to the fields \n   // for the structure object book2\n   Book book2 \n     = Book(\"Building Ethereum DApps\", \n            \"Roberto Infante \", \n             2, false);\n  \n   // Defining a function to set values \n   // for the fields for structure book1\n   function set_book_detail() public {\n      book1 = Book(\"Introducing Ethereum and Solidity\", \n                   \"Chris Dannen\", \n                    1, true);\n   }\n  \n  \n   // Defining function to print \n   // book2 details\n   function book_info(\n   )public view returns (\n     string memory, string memory, uint, bool) {  \n            \n        return(book2.name, book2.writter, \n               book2.id, book2.available);  \n    } \n     \n   // Defining function to print \n   // book1 details\n   function get_details(\n   ) public view returns (string memory, uint) {\n      return (book1.name, book1.id);\n   }\n    \n}",
  "sourcePath": "/Users/mateenmustafa/Desktop/defi-dapps-solidity-smart-contracts/step09_solidity_structure/contracts/LearningSolidity.sol",
  "compiler": {
    "name": "solc",
    "version": "0.8.6+commit.11564f7e.Emscripten.clang"
  },
  "schemaVersion": "3.4.3",
  "updatedAt": "2021-09-12T12:20:20.456Z",
  "networkType": "ethereum",
  "devdoc": {
    "kind": "dev",
    "methods": {},
    "version": 1
  },
  "userdoc": {
    "kind": "user",
    "methods": {},
    "version": 1
  }
}