{
  "contractName": "Verification",
  "abi": [
    {
      "inputs": [
        {
          "internalType": "bytes32",
          "name": "hash",
          "type": "bytes32"
        },
        {
          "internalType": "bytes",
          "name": "signature",
          "type": "bytes"
        }
      ],
      "name": "recover",
      "outputs": [
        {
          "internalType": "address",
          "name": "",
          "type": "address"
        }
      ],
      "stateMutability": "pure",
      "type": "function",
      "constant": true
    }
  ],
  "bytecode": "0x608060405234801561001057600080fd5b50610272806100206000396000f3fe608060405234801561001057600080fd5b506004361061002b5760003560e01c806319045a2514610030575b600080fd5b61004361003e366004610138565b61005f565b6040516001600160a01b03909116815260200160405180910390f35b600080600080845160411461007a5760009350505050610132565b50505060208201516040830151606084015160001a601b8110156100a6576100a3601b826101f3565b90505b8060ff16601b141580156100be57508060ff16601c14155b156100cf5760009350505050610132565b60408051600081526020810180835288905260ff831691810191909152606081018490526080810183905260019060a0016020604051602081039080840390855afa158015610122573d6000803e3d6000fd5b5050506020604051035193505050505b92915050565b6000806040838503121561014b57600080fd5b82359150602083013567ffffffffffffffff8082111561016a57600080fd5b818501915085601f83011261017e57600080fd5b81358181111561019057610190610226565b604051601f8201601f19908116603f011681019083821181831017156101b8576101b8610226565b816040528281528860208487010111156101d157600080fd5b8260208601602083013760006020848301015280955050505050509250929050565b600060ff821660ff84168060ff0382111561021e57634e487b7160e01b600052601160045260246000fd5b019392505050565b634e487b7160e01b600052604160045260246000fdfea264697066735822122078fefdb4bbfbb45ba9f760b3957ea72a8ec8d42dd56c13d205d1e14ac307af7464736f6c63430008070033",
  "immutableReferences": {},
  "source": "// SPDX-License-Identifier: MIT\npragma solidity ^0.8.4;\n\n/**\n * Based upon ECDSA library from OpenZeppelin Solidity\n * https://github.com/OpenZeppelin/openzeppelin-solidity/blob/master/contracts/cryptography/ECDSA.sol\n */\n\ncontract Verification {\n\n  /**\n   * @dev Recover signer address from a message by using their signature\n   * @param hash bytes32 message, the hash is the signed message. What is recovered is the signer address.\n   * @param signature bytes signature, the signature is generated using web3.eth.sign()\n   */\n  function recover(bytes32 hash, bytes memory signature)\n    public\n    pure\n    returns (address)\n  {\n    bytes32 r;\n    bytes32 s;\n    uint8 v;\n\n    // Check the signature length\n    if (signature.length != 65) {\n      return (address(0));\n    }\n\n    // Divide the signature in r, s and v variables\n    // ecrecover takes the signature parameters, and the only way to get them\n    // currently is to use assembly.\n    // solium-disable-next-line security/no-inline-assembly\n    assembly {\n      r := mload(add(signature, 0x20))\n      s := mload(add(signature, 0x40))\n      v := byte(0, mload(add(signature, 0x60)))\n    }\n\n    // Version of signature should be 27 or 28, but 0 and 1 are also possible versions\n    if (v < 27) {\n      v += 27;\n    }\n\n    // If the version is correct return the signer address\n    if (v != 27 && v != 28) {\n      return (address(0));\n    } else {\n      // solium-disable-next-line arg-overflow\n      return ecrecover(hash, v, r, s);\n    }\n  }\n}\n",
  "sourcePath": "/Users/zed/Desktop/message_signing/src/contracts/Verification.sol",
  "compiler": {
    "name": "solc",
    "version": "0.8.7+commit.e28d00a7.Emscripten.clang"
  },
  "schemaVersion": "3.4.1",
  "updatedAt": "2021-09-23T12:15:46.551Z",
  "networkType": "ethereum",
  "devdoc": {
    "kind": "dev",
    "methods": {
      "recover(bytes32,bytes)": {
        "details": "Recover signer address from a message by using their signature",
        "params": {
          "hash": "bytes32 message, the hash is the signed message. What is recovered is the signer address.",
          "signature": "bytes signature, the signature is generated using web3.eth.sign()"
        }
      }
    },
    "version": 1
  },
  "userdoc": {
    "kind": "user",
    "methods": {},
    "notice": "Based upon ECDSA library from OpenZeppelin Solidity https://github.com/OpenZeppelin/openzeppelin-solidity/blob/master/contracts/cryptography/ECDSA.sol",
    "version": 1
  }
}