{
  "contractName": "TodoList",
  "abi": [
    {
      "inputs": [],
      "payable": false,
      "stateMutability": "nonpayable",
      "type": "constructor"
    },
    {
      "anonymous": false,
      "inputs": [
        {
          "indexed": false,
          "internalType": "uint256",
          "name": "id",
          "type": "uint256"
        },
        {
          "indexed": false,
          "internalType": "bool",
          "name": "completed",
          "type": "bool"
        }
      ],
      "name": "TaskCompleted",
      "type": "event"
    },
    {
      "anonymous": false,
      "inputs": [
        {
          "indexed": false,
          "internalType": "uint256",
          "name": "id",
          "type": "uint256"
        },
        {
          "indexed": false,
          "internalType": "string",
          "name": "content",
          "type": "string"
        },
        {
          "indexed": false,
          "internalType": "bool",
          "name": "completed",
          "type": "bool"
        }
      ],
      "name": "TaskCreated",
      "type": "event"
    },
    {
      "anonymous": false,
      "inputs": [
        {
          "indexed": false,
          "internalType": "uint256",
          "name": "id",
          "type": "uint256"
        }
      ],
      "name": "TaskDeleted",
      "type": "event"
    },
    {
      "constant": true,
      "inputs": [],
      "name": "taskCount",
      "outputs": [
        {
          "internalType": "uint256",
          "name": "",
          "type": "uint256"
        }
      ],
      "payable": false,
      "stateMutability": "view",
      "type": "function"
    },
    {
      "constant": true,
      "inputs": [
        {
          "internalType": "uint256",
          "name": "",
          "type": "uint256"
        }
      ],
      "name": "tasks",
      "outputs": [
        {
          "internalType": "uint256",
          "name": "id",
          "type": "uint256"
        },
        {
          "internalType": "string",
          "name": "content",
          "type": "string"
        },
        {
          "internalType": "bool",
          "name": "completed",
          "type": "bool"
        }
      ],
      "payable": false,
      "stateMutability": "view",
      "type": "function"
    },
    {
      "constant": false,
      "inputs": [
        {
          "internalType": "uint256",
          "name": "_id",
          "type": "uint256"
        },
        {
          "internalType": "string",
          "name": "_content",
          "type": "string"
        }
      ],
      "name": "createTask",
      "outputs": [],
      "payable": false,
      "stateMutability": "nonpayable",
      "type": "function"
    },
    {
      "constant": false,
      "inputs": [
        {
          "internalType": "uint256",
          "name": "_id",
          "type": "uint256"
        }
      ],
      "name": "toggleCompleted",
      "outputs": [],
      "payable": false,
      "stateMutability": "nonpayable",
      "type": "function"
    },
    {
      "constant": false,
      "inputs": [
        {
          "internalType": "uint256",
          "name": "_id",
          "type": "uint256"
        }
      ],
      "name": "deleteTask",
      "outputs": [],
      "payable": false,
      "stateMutability": "nonpayable",
      "type": "function"
    }
  ],
  "bytecode": "0x60806040526000805534801561001457600080fd5b506107ae806100246000396000f3fe608060405234801561001057600080fd5b50600436106100575760003560e01c806316d41b941461005c578063455f50241461010b578063560f3192146101285780638d97767214610145578063b6cb58a5146101ec575b600080fd5b6101096004803603604081101561007257600080fd5b8135919081019060408101602082013564010000000081111561009457600080fd5b8201836020820111156100a657600080fd5b803590602001918460018302840111640100000000831117156100c857600080fd5b91908080601f016020809104026020016040519081016040528093929190818152602001838380828437600092019190915250929550610206945050505050565b005b6101096004803603602081101561012157600080fd5b5035610320565b6101096004803603602081101561013e57600080fd5b50356104b2565b6101626004803603602081101561015b57600080fd5b5035610591565b604051808481526020018060200183151515158152602001828103825284818151815260200191508051906020019080838360005b838110156101af578181015183820152602001610197565b50505050905090810190601f1680156101dc5780820380516001836020036101000a031916815260200191505b5094505050505060405180910390f35b6101f4610640565b60408051918252519081900360200190f35b600080546001908101808355604080516060810182528681526020808201878152828401879052938652848152919094208451815591518051929361025393908501929190910190610646565b50604091820151600291909101805460ff1916911515919091179055805183815260009181018290526060602080830182815285519284019290925284517f05d0fb833127fc08168556d0e7ca9554fc3f6bc843b3b7d2bf1c35aea6bab6609487948794919390926080840191860190808383885b838110156102e05781810151838201526020016102c8565b50505050905090810190601f16801561030d5780820380516001836020036101000a031916815260200191505b5094505050505060405180910390a15050565b600060015b60005481116103545760008181526001602052604090205483141561034c57809150610354565b600101610325565b5061035d6106c4565b60008281526001602081815260409283902083516060810185528154815281840180548651600296821615610100026000190190911695909504601f810185900485028601850190965285855290949193858401939092908301828280156104065780601f106103db57610100808354040283529160200191610406565b820191906000526020600020905b8154815290600101906020018083116103e957829003601f168201915b50505091835250506002919091015460ff16151560209182015260016040808401829052600086815282845220835181558383015180519495508594919361045393850192910190610646565b50604091820151600291909101805460ff1916911515919091179055818101518151858152901515602082015281517fe21fa966ca5cd02748c0752352d18c48165e61cb55b4c29cccf924b5a95fcff1929181900390910190a1505050565b6000805b6000548110156104e6576000818152600160205260409020548314156104de578091506104e6565b6001016104b6565b5060005481101561055057600080548152600160208190526040808320848452922082548155828201805491926105339284820192916002908216156101000260001901909116046106e7565b506002918201549101805460ff191660ff90921615159190911790555b600080546000190190556040805183815290517fd078b251d950cc55c44340be1db732337ef4939a76e1367ee271ad2cb19c46af9181900360200190a15050565b600160208181526000928352604092839020805481840180548651600296821615610100026000190190911695909504601f8101859004850286018501909652858552909491939290919083018282801561062d5780601f106106025761010080835404028352916020019161062d565b820191906000526020600020905b81548152906001019060200180831161061057829003601f168201915b5050506002909301549192505060ff1683565b60005481565b828054600181600116156101000203166002900490600052602060002090601f016020900481019282601f1061068757805160ff19168380011785556106b4565b828001600101855582156106b4579182015b828111156106b4578251825591602001919060010190610699565b506106c092915061075c565b5090565b604051806060016040528060008152602001606081526020016000151581525090565b828054600181600116156101000203166002900490600052602060002090601f016020900481019282601f1061072057805485556106b4565b828001600101855582156106b457600052602060002091601f016020900482015b828111156106b4578254825591600101919060010190610741565b61077691905b808211156106c05760008155600101610762565b9056fea265627a7a72315820564a574337cedd137628830b7c1e710a09af3147c5098c6283f6841099146fd564736f6c63430005100032",
  "source": "pragma solidity ^0.5.0;\r\n\r\ncontract TodoList {\r\n  uint public taskCount = 0;\r\n\r\n  struct Task {\r\n    uint id;\r\n    string content;\r\n    bool completed;\r\n  }\r\n\r\n  mapping(uint => Task) public tasks;\r\n\r\n  event TaskCreated(\r\n    uint id,\r\n    string content,\r\n    bool completed\r\n  );\r\n\r\n  event TaskCompleted(\r\n    uint id,\r\n    bool completed\r\n  );\r\n\r\n  event TaskDeleted(\r\n    uint id\r\n  );\r\n\r\n  constructor() public {\r\n  }\r\n\r\n  function createTask(uint _id, string memory _content) public {\r\n    taskCount ++;\r\n    tasks[taskCount] = Task(_id, _content, false);\r\n    emit TaskCreated(_id, _content, false);\r\n  }\r\n\r\n  function toggleCompleted(uint _id) public {\r\n\r\n    uint indexToBeUpdated;\r\n    \r\n    for (uint i=1; i<=taskCount; i++) {\r\n      if (tasks[i].id == _id) {\r\n        indexToBeUpdated = i;\r\n        break;\r\n      }\r\n    }\r\n\r\n    Task memory _task = tasks[indexToBeUpdated];\r\n    _task.completed = true;\r\n    tasks[indexToBeUpdated] = _task;\r\n    emit TaskCompleted(_id, _task.completed);\r\n  }\r\n\r\n  function deleteTask(uint _id) public {\r\n    uint indexToBeDeleted;\r\n    // if index to be deleted is not the last index, swap position.\r\n    for (uint i=0; i<taskCount; i++) {\r\n      if (tasks[i].id == _id) {\r\n        indexToBeDeleted = i;\r\n        break;\r\n      }\r\n    }\r\n\r\n      if (indexToBeDeleted < taskCount) {\r\n        tasks[indexToBeDeleted] = tasks[taskCount];\r\n      }\r\n    \r\n    // we can now reduce the array length by 1\r\n    taskCount--;\r\n    emit TaskDeleted(_id);\r\n  }\r\n}\r\n",
  "sourcePath": "D:\\naila\\bootcamp2020\\defi-dapps-solidity-smart-contracts\\step40_web3_ganache_react_redux_metamask\\blockchainBackend\\contracts\\TodoList.sol",
  "compiler": {
    "name": "solc",
    "version": "0.5.16+commit.9c3226ce.Emscripten.clang"
  },
  "schemaVersion": "3.4.3",
  "updatedAt": "2021-09-06T16:38:05.708Z",
  "networkType": "ethereum",
  "devdoc": {
    "methods": {}
  },
  "userdoc": {
    "methods": {}
  }
}