{
  "contractName": "TodoList",
  "abi": [
    {
      "inputs": [],
      "payable": false,
      "stateMutability": "nonpayable",
      "type": "constructor"
    },
    {
      "anonymous": false,
      "inputs": [
        {
          "indexed": false,
          "internalType": "uint256",
          "name": "id",
          "type": "uint256"
        },
        {
          "indexed": false,
          "internalType": "bool",
          "name": "completed",
          "type": "bool"
        }
      ],
      "name": "TaskCompleted",
      "type": "event"
    },
    {
      "anonymous": false,
      "inputs": [
        {
          "indexed": false,
          "internalType": "uint256",
          "name": "id",
          "type": "uint256"
        },
        {
          "indexed": false,
          "internalType": "string",
          "name": "content",
          "type": "string"
        },
        {
          "indexed": false,
          "internalType": "bool",
          "name": "completed",
          "type": "bool"
        }
      ],
      "name": "TaskCreated",
      "type": "event"
    },
    {
      "anonymous": false,
      "inputs": [
        {
          "indexed": false,
          "internalType": "uint256",
          "name": "id",
          "type": "uint256"
        }
      ],
      "name": "TaskDeleted",
      "type": "event"
    },
    {
      "constant": true,
      "inputs": [],
      "name": "taskCount",
      "outputs": [
        {
          "internalType": "uint256",
          "name": "",
          "type": "uint256"
        }
      ],
      "payable": false,
      "stateMutability": "view",
      "type": "function"
    },
    {
      "constant": true,
      "inputs": [
        {
          "internalType": "uint256",
          "name": "",
          "type": "uint256"
        }
      ],
      "name": "tasks",
      "outputs": [
        {
          "internalType": "uint256",
          "name": "id",
          "type": "uint256"
        },
        {
          "internalType": "string",
          "name": "content",
          "type": "string"
        },
        {
          "internalType": "bool",
          "name": "completed",
          "type": "bool"
        }
      ],
      "payable": false,
      "stateMutability": "view",
      "type": "function"
    },
    {
      "constant": false,
      "inputs": [
        {
          "internalType": "uint256",
          "name": "_id",
          "type": "uint256"
        },
        {
          "internalType": "string",
          "name": "_content",
          "type": "string"
        }
      ],
      "name": "createTask",
      "outputs": [],
      "payable": false,
      "stateMutability": "nonpayable",
      "type": "function"
    },
    {
      "constant": false,
      "inputs": [
        {
          "internalType": "uint256",
          "name": "_id",
          "type": "uint256"
        }
      ],
      "name": "toggleCompleted",
      "outputs": [],
      "payable": false,
      "stateMutability": "nonpayable",
      "type": "function"
    },
    {
      "constant": false,
      "inputs": [
        {
          "internalType": "uint256",
          "name": "_id",
          "type": "uint256"
        }
      ],
      "name": "deleteTask",
      "outputs": [],
      "payable": false,
      "stateMutability": "nonpayable",
      "type": "function"
    }
  ],
  "bytecode": "0x60806040526000805534801561001457600080fd5b5061077c806100246000396000f3fe608060405234801561001057600080fd5b50600436106100575760003560e01c806316d41b941461005c578063455f50241461010b578063560f3192146101285780638d97767214610145578063b6cb58a5146101ec575b600080fd5b6101096004803603604081101561007257600080fd5b8135919081019060408101602082013564010000000081111561009457600080fd5b8201836020820111156100a657600080fd5b803590602001918460018302840111640100000000831117156100c857600080fd5b91908080601f016020809104026020016040519081016040528093929190818152602001838380828437600092019190915250929550610206945050505050565b005b6101096004803603602081101561012157600080fd5b5035610320565b6101096004803603602081101561013e57600080fd5b5035610480565b6101626004803603602081101561015b57600080fd5b503561055f565b604051808481526020018060200183151515158152602001828103825284818151815260200191508051906020019080838360005b838110156101af578181015183820152602001610197565b50505050905090810190601f1680156101dc5780820380516001836020036101000a031916815260200191505b5094505050505060405180910390f35b6101f461060e565b60408051918252519081900360200190f35b600080546001908101808355604080516060810182528681526020808201878152828401879052938652848152919094208451815591518051929361025393908501929190910190610614565b50604091820151600291909101805460ff1916911515919091179055805183815260009181018290526060602080830182815285519284019290925284517f05d0fb833127fc08168556d0e7ca9554fc3f6bc843b3b7d2bf1c35aea6bab6609487948794919390926080840191860190808383885b838110156102e05781810151838201526020016102c8565b50505050905090810190601f16801561030d5780820380516001836020036101000a031916815260200191505b5094505050505060405180910390a15050565b610328610692565b60008281526001602081815260409283902083516060810185528154815281840180548651600296821615610100026000190190911695909504601f810185900485028601850190965285855290949193858401939092908301828280156103d15780601f106103a6576101008083540402835291602001916103d1565b820191906000526020600020905b8154815290600101906020018083116103b457829003601f168201915b50505091835250506002919091015460ff1615156020918201526040808301805115905260008581526001808452919020835181558383015180519495508594919361042293850192910190610614565b50604091820151600291909101805460ff1916911515919091179055818101518151848152901515602082015281517fe21fa966ca5cd02748c0752352d18c48165e61cb55b4c29cccf924b5a95fcff1929181900390910190a15050565b6000805b6000548110156104b4576000818152600160205260409020548314156104ac578091506104b4565b600101610484565b5060005481101561051e57600080548152600160208190526040808320848452922082548155828201805491926105019284820192916002908216156101000260001901909116046106b5565b506002918201549101805460ff191660ff90921615159190911790555b600080546000190190556040805183815290517fd078b251d950cc55c44340be1db732337ef4939a76e1367ee271ad2cb19c46af9181900360200190a15050565b600160208181526000928352604092839020805481840180548651600296821615610100026000190190911695909504601f810185900485028601850190965285855290949193929091908301828280156105fb5780601f106105d0576101008083540402835291602001916105fb565b820191906000526020600020905b8154815290600101906020018083116105de57829003601f168201915b5050506002909301549192505060ff1683565b60005481565b828054600181600116156101000203166002900490600052602060002090601f016020900481019282601f1061065557805160ff1916838001178555610682565b82800160010185558215610682579182015b82811115610682578251825591602001919060010190610667565b5061068e92915061072a565b5090565b604051806060016040528060008152602001606081526020016000151581525090565b828054600181600116156101000203166002900490600052602060002090601f016020900481019282601f106106ee5780548555610682565b8280016001018555821561068257600052602060002091601f016020900482015b8281111561068257825482559160010191906001019061070f565b61074491905b8082111561068e5760008155600101610730565b9056fea265627a7a72315820a6ca890aea0fad9ab7783404d26fdcc3adfb4c7f5019c7bd881bb30cd9490d7564736f6c63430005100032",
  "source": "pragma solidity ^0.5.0;\n\ncontract TodoList {\n  uint public taskCount = 0;\n\n  struct Task {\n    uint id;\n    string content;\n    bool completed;\n  }\n\n  mapping(uint => Task) public tasks;\n\n  event TaskCreated(\n    uint id,\n    string content,\n    bool completed\n  );\n\n  event TaskCompleted(\n    uint id,\n    bool completed\n  );\n\n  event TaskDeleted(\n    uint id\n  );\n\n  constructor() public {\n  }\n\n  function createTask(uint _id, string memory _content) public {\n    taskCount ++;\n    tasks[taskCount] = Task(_id, _content, false);\n    emit TaskCreated(_id, _content, false);\n  }\n\n  function toggleCompleted(uint _id) public {\n    Task memory _task = tasks[_id];\n    _task.completed = !_task.completed;\n    tasks[_id] = _task;\n    emit TaskCompleted(_id, _task.completed);\n  }\n\n  function deleteTask(uint _id) public {\n    // Task memory _task = tasks[_id];\n    uint indexToBeDeleted;\n    // if index to be deleted is not the last index, swap position.\n    for (uint i=0; i<taskCount; i++) {\n      if (tasks[i].id == _id) {\n        indexToBeDeleted = i;\n        break;\n      }\n    }\n\n      if (indexToBeDeleted < taskCount) {\n        tasks[indexToBeDeleted] = tasks[taskCount];\n      }\n    \n    // we can now reduce the array length by 1\n    taskCount--;\n    emit TaskDeleted(_id);\n  }\n}\n",
  "sourcePath": "D:\\naila\\bootcamp2020\\Metamask-React-Ganache-master\\blockchainBackend\\contracts\\TodoList.sol",
  "compiler": {
    "name": "solc",
    "version": "0.5.16+commit.9c3226ce.Emscripten.clang"
  },
  "schemaVersion": "3.4.3",
  "updatedAt": "2021-09-04T15:35:00.281Z",
  "networkType": "ethereum",
  "devdoc": {
    "methods": {}
  },
  "userdoc": {
    "methods": {}
  }
}