{
  "contractName": "Arb",
  "abi": [
    {
      "inputs": [],
      "payable": false,
      "stateMutability": "nonpayable",
      "type": "constructor"
    },
    {
      "anonymous": false,
      "inputs": [
        {
          "indexed": false,
          "internalType": "uint256",
          "name": "balanceBefore",
          "type": "uint256"
        },
        {
          "indexed": false,
          "internalType": "uint256",
          "name": "balanceAfter",
          "type": "uint256"
        }
      ],
      "name": "usdcBalanceHistory",
      "type": "event"
    },
    {
      "payable": true,
      "stateMutability": "payable",
      "type": "fallback"
    },
    {
      "constant": true,
      "inputs": [
        {
          "internalType": "uint256",
          "name": "",
          "type": "uint256"
        }
      ],
      "name": "swapPath",
      "outputs": [
        {
          "internalType": "address",
          "name": "",
          "type": "address"
        }
      ],
      "payable": false,
      "stateMutability": "view",
      "type": "function"
    },
    {
      "constant": false,
      "inputs": [
        {
          "internalType": "uint256",
          "name": "_amount",
          "type": "uint256"
        }
      ],
      "name": "startArb",
      "outputs": [],
      "payable": true,
      "stateMutability": "payable",
      "type": "function"
    },
    {
      "constant": false,
      "inputs": [
        {
          "internalType": "address",
          "name": "sender",
          "type": "address"
        },
        {
          "components": [
            {
              "internalType": "address",
              "name": "owner",
              "type": "address"
            },
            {
              "internalType": "uint256",
              "name": "number",
              "type": "uint256"
            }
          ],
          "internalType": "struct Account.Info",
          "name": "account",
          "type": "tuple"
        },
        {
          "internalType": "bytes",
          "name": "data",
          "type": "bytes"
        }
      ],
      "name": "callFunction",
      "outputs": [],
      "payable": false,
      "stateMutability": "nonpayable",
      "type": "function"
    }
  ],
  "bytecode": "0x608060405273a0b86991c6218b36c1d19d4a2e9eb0ce3606eb48600160006101000a81548173ffffffffffffffffffffffffffffffffffffffff021916908373ffffffffffffffffffffffffffffffffffffffff160217905550600160009054906101000a900473ffffffffffffffffffffffffffffffffffffffff16600260006101000a81548173ffffffffffffffffffffffffffffffffffffffff021916908373ffffffffffffffffffffffffffffffffffffffff16021790555073dac17f958d2ee523a2206206994597c13d831ec7600360006101000a81548173ffffffffffffffffffffffffffffffffffffffff021916908373ffffffffffffffffffffffffffffffffffffffff160217905550600360009054906101000a900473ffffffffffffffffffffffffffffffffffffffff16600460006101000a81548173ffffffffffffffffffffffffffffffffffffffff021916908373ffffffffffffffffffffffffffffffffffffffff16021790555073c02aaa39b223fe8d0a0e5c4f27ead9083c756cc2600560006101000a81548173ffffffffffffffffffffffffffffffffffffffff021916908373ffffffffffffffffffffffffffffffffffffffff160217905550731e0447b19bb6ecfdae1e4ae1694b0c3659614e4e600660006101000a81548173ffffffffffffffffffffffffffffffffffffffff021916908373ffffffffffffffffffffffffffffffffffffffff160217905550600660009054906101000a900473ffffffffffffffffffffffffffffffffffffffff16600760006101000a81548173ffffffffffffffffffffffffffffffffffffffff021916908373ffffffffffffffffffffffffffffffffffffffff1602179055507345f783cce6b7ff23b2ab2d70e416cdb7d6055f51600860006101000a81548173ffffffffffffffffffffffffffffffffffffffff021916908373ffffffffffffffffffffffffffffffffffffffff160217905550600860009054906101000a900473ffffffffffffffffffffffffffffffffffffffff16600960006101000a81548173ffffffffffffffffffffffffffffffffffffffff021916908373ffffffffffffffffffffffffffffffffffffffff160217905550737a250d5630b4cf539739df2c5dacb4c659f2488d600a60006101000a81548173ffffffffffffffffffffffffffffffffffffffff021916908373ffffffffffffffffffffffffffffffffffffffff160217905550600a60009054906101000a900473ffffffffffffffffffffffffffffffffffffffff16600b60006101000a81548173ffffffffffffffffffffffffffffffffffffffff021916908373ffffffffffffffffffffffffffffffffffffffff1602179055506040518060600160405280600160009054906101000a900473ffffffffffffffffffffffffffffffffffffffff1673ffffffffffffffffffffffffffffffffffffffff1673ffffffffffffffffffffffffffffffffffffffff168152602001600560009054906101000a900473ffffffffffffffffffffffffffffffffffffffff1673ffffffffffffffffffffffffffffffffffffffff1673ffffffffffffffffffffffffffffffffffffffff168152602001600360009054906101000a900473ffffffffffffffffffffffffffffffffffffffff1673ffffffffffffffffffffffffffffffffffffffff1673ffffffffffffffffffffffffffffffffffffffff16815250600c906003620005089291906200055d565b503480156200051657600080fd5b50336000806101000a81548173ffffffffffffffffffffffffffffffffffffffff021916908373ffffffffffffffffffffffffffffffffffffffff16021790555062000632565b828054828255906000526020600020908101928215620005d9579160200282015b82811115620005d85782518260006101000a81548173ffffffffffffffffffffffffffffffffffffffff021916908373ffffffffffffffffffffffffffffffffffffffff160217905550916020019190600101906200057e565b5b509050620005e89190620005ec565b5090565b6200062f91905b808211156200062b57600081816101000a81549073ffffffffffffffffffffffffffffffffffffffff021916905550600101620005f3565b5090565b90565b6122c780620006426000396000f3fe6080604052600436106100345760003560e01c806324cc0766146100365780638b41871314610073578063de8110271461009c575b005b34801561004257600080fd5b5061005d60048036036100589190810190611557565b6100b8565b60405161006a9190611c45565b60405180910390f35b34801561007f57600080fd5b5061009a6004803603610095919081019061145d565b6100f4565b005b6100b660048036036100b19190810190611557565b610217565b005b600c81815481106100c557fe5b906000526020600020016000915054906101000a900473ffffffffffffffffffffffffffffffffffffffff1681565b6100fc6110e5565b81806020019051610110919081019061152e565b90506000600260009054906101000a900473ffffffffffffffffffffffffffffffffffffffff1673ffffffffffffffffffffffffffffffffffffffff166370a08231306040518263ffffffff1660e01b815260040161016f9190611c60565b60206040518083038186803b15801561018757600080fd5b505afa15801561019b573d6000803e3d6000fd5b505050506040513d601f19601f820116820180604052506101bf9190810190611580565b90508160000151811015610208576040517f08c379a00000000000000000000000000000000000000000000000000000000081526004016101ff90611d89565b60405180910390fd5b61021061059f565b5050505050565b6000809054906101000a900473ffffffffffffffffffffffffffffffffffffffff1673ffffffffffffffffffffffffffffffffffffffff163373ffffffffffffffffffffffffffffffffffffffff16146102a6576040517f08c379a000000000000000000000000000000000000000000000000000000000815260040161029d90611d49565b60405180910390fd5b60006102f6600660009054906101000a900473ffffffffffffffffffffffffffffffffffffffff16600160009054906101000a900473ffffffffffffffffffffffffffffffffffffffff16610938565b9050600061030383610aea565b9050600260009054906101000a900473ffffffffffffffffffffffffffffffffffffffff1673ffffffffffffffffffffffffffffffffffffffff1663095ea7b3600660009054906101000a900473ffffffffffffffffffffffffffffffffffffffff16836040518363ffffffff1660e01b8152600401610384929190611ca4565b602060405180830381600087803b15801561039e57600080fd5b505af11580156103b2573d6000803e3d6000fd5b505050506040513d601f19601f820116820180604052506103d69190810190611505565b506060600360405190808252806020026020018201604052801561041457816020015b6104016110f8565b8152602001906001900390816103f95790505b5090506104218385610b07565b8160008151811061042e57fe5b602002602001018190525061046f60405180602001604052808481525060405160200161045b9190611e49565b604051602081830303815290604052610bc0565b8160018151811061047c57fe5b60200260200101819052506104918383610c6a565b8160028151811061049e57fe5b6020026020010181905250606060016040519080825280602002602001820160405280156104e657816020015b6104d3611164565b8152602001906001900390816104cb5790505b5090506104f1610d23565b816000815181106104fe57fe5b6020026020010181905250600760009054906101000a900473ffffffffffffffffffffffffffffffffffffffff1673ffffffffffffffffffffffffffffffffffffffff1663a67a6a4582846040518363ffffffff1660e01b8152600401610566929190611ccd565b600060405180830381600087803b15801561058057600080fd5b505af1158015610594573d6000803e3d6000fd5b505050505050505050565b600060028060009054906101000a900473ffffffffffffffffffffffffffffffffffffffff1673ffffffffffffffffffffffffffffffffffffffff166370a08231306040518263ffffffff1660e01b81526004016105fd9190611c60565b60206040518083038186803b15801561061557600080fd5b505afa158015610629573d6000803e3d6000fd5b505050506040513d601f19601f8201168201806040525061064d9190810190611580565b0390506106bf600a60009054906101000a900473ffffffffffffffffffffffffffffffffffffffff1682600260009054906101000a900473ffffffffffffffffffffffffffffffffffffffff1673ffffffffffffffffffffffffffffffffffffffff16610d5c9092919063ffffffff16565b600b60009054906101000a900473ffffffffffffffffffffffffffffffffffffffff1673ffffffffffffffffffffffffffffffffffffffff166338ed1739826001600c3063970070376040518663ffffffff1660e01b8152600401610728959493929190611e7f565b600060405180830381600087803b15801561074257600080fd5b505af1158015610756573d6000803e3d6000fd5b505050506040513d6000823e3d601f19601f8201168201806040525061077f91908101906114c4565b506000600460009054906101000a900473ffffffffffffffffffffffffffffffffffffffff1673ffffffffffffffffffffffffffffffffffffffff166370a08231306040518263ffffffff1660e01b81526004016107dd9190611c60565b60206040518083038186803b1580156107f557600080fd5b505afa158015610809573d6000803e3d6000fd5b505050506040513d601f19601f8201168201806040525061082d9190810190611580565b905061089e600860009054906101000a900473ffffffffffffffffffffffffffffffffffffffff1682600460009054906101000a900473ffffffffffffffffffffffffffffffffffffffff1673ffffffffffffffffffffffffffffffffffffffff16610d5c9092919063ffffffff16565b600960009054906101000a900473ffffffffffffffffffffffffffffffffffffffff1673ffffffffffffffffffffffffffffffffffffffff1663a6417ed6600260018460016040518563ffffffff1660e01b81526004016109029493929190611d04565b600060405180830381600087803b15801561091c57600080fd5b505af1158015610930573d6000803e3d6000fd5b505050505050565b60008083905060008173ffffffffffffffffffffffffffffffffffffffff1663295c39a56040518163ffffffff1660e01b815260040160206040518083038186803b15801561098657600080fd5b505afa15801561099a573d6000803e3d6000fd5b505050506040513d601f19601f820116820180604052506109be9190810190611580565b9050600080600090505b82811015610aa8578373ffffffffffffffffffffffffffffffffffffffff1663062bd3e9826040518263ffffffff1660e01b8152600401610a099190611e64565b60206040518083038186803b158015610a2157600080fd5b505afa158015610a35573d6000803e3d6000fd5b505050506040513d601f19601f82011682018060405250610a599190810190611434565b91508573ffffffffffffffffffffffffffffffffffffffff168273ffffffffffffffffffffffffffffffffffffffff161415610a9b5780945050505050610ae4565b80806001019150506109c8565b506040517f08c379a0000000000000000000000000000000000000000000000000000000008152600401610adb90611dc9565b60405180910390fd5b92915050565b6000610b00600283610ed390919063ffffffff16565b9050919050565b610b0f611194565b60405180610100016040528060016008811115610b2857fe5b815260200160008152602001604051806080016040528060001515815260200160006001811115610b5557fe5b815260200160006001811115610b6757fe5b8152602001858152508152602001848152602001600081526020013073ffffffffffffffffffffffffffffffffffffffff1681526020016000815260200160405180602001604052806000815250815250905092915050565b610bc8611194565b604051806101000160405280600880811115610be057fe5b815260200160008152602001604051806080016040528060001515815260200160006001811115610c0d57fe5b815260200160006001811115610c1f57fe5b81526020016000815250815260200160008152602001600081526020013073ffffffffffffffffffffffffffffffffffffffff16815260200160008152602001838152509050919050565b610c72611194565b60405180610100016040528060006008811115610c8b57fe5b815260200160008152602001604051806080016040528060011515815260200160006001811115610cb857fe5b815260200160006001811115610cca57fe5b8152602001858152508152602001848152602001600081526020013073ffffffffffffffffffffffffffffffffffffffff1681526020016000815260200160405180602001604052806000815250815250905092915050565b610d2b611200565b60405180604001604052803073ffffffffffffffffffffffffffffffffffffffff1681526020016001815250905090565b6000811480610df5575060008373ffffffffffffffffffffffffffffffffffffffff1663dd62ed3e30856040518363ffffffff1660e01b8152600401610da3929190611c7b565b60206040518083038186803b158015610dbb57600080fd5b505afa158015610dcf573d6000803e3d6000fd5b505050506040513d601f19601f82011682018060405250610df39190810190611580565b145b610e34576040517f08c379a0000000000000000000000000000000000000000000000000000000008152600401610e2b90611e09565b60405180910390fd5b610ece838473ffffffffffffffffffffffffffffffffffffffff1663095ea7b3905060e01b8484604051602401610e6c929190611ca4565b604051602081830303815290604052907bffffffffffffffffffffffffffffffffffffffffffffffffffffffff19166020820180517bffffffffffffffffffffffffffffffffffffffffffffffffffffffff8381831617835250505050610f28565b505050565b600080828401905083811015610f1e576040517f08c379a0000000000000000000000000000000000000000000000000000000008152600401610f1590611d69565b60405180910390fd5b8091505092915050565b610f478273ffffffffffffffffffffffffffffffffffffffff1661109a565b610f86576040517f08c379a0000000000000000000000000000000000000000000000000000000008152600401610f7d90611e29565b60405180910390fd5b600060608373ffffffffffffffffffffffffffffffffffffffff1683604051610faf9190611c2e565b6000604051808303816000865af19150503d8060008114610fec576040519150601f19603f3d011682016040523d82523d6000602084013e610ff1565b606091505b509150915081611036576040517f08c379a000000000000000000000000000000000000000000000000000000000815260040161102d90611da9565b60405180910390fd5b60008151111561109457808060200190516110549190810190611505565b611093576040517f08c379a000000000000000000000000000000000000000000000000000000000815260040161108a90611de9565b60405180910390fd5b5b50505050565b60008060007fc5d2460186f7233c927e7db2dcc703c0e500b653ca82273b7bfad8045d85a47060001b9050833f91508082141580156110dc57506000801b8214155b92505050919050565b6040518060200160405280600081525090565b6040518061010001604052806000600881111561111157fe5b815260200160008152602001611125611230565b81526020016000815260200160008152602001600073ffffffffffffffffffffffffffffffffffffffff16815260200160008152602001606081525090565b6040518060400160405280600073ffffffffffffffffffffffffffffffffffffffff168152602001600081525090565b604051806101000160405280600060088111156111ad57fe5b8152602001600081526020016111c1611230565b81526020016000815260200160008152602001600073ffffffffffffffffffffffffffffffffffffffff16815260200160008152602001606081525090565b6040518060400160405280600073ffffffffffffffffffffffffffffffffffffffff168152602001600081525090565b60405180608001604052806000151581526020016000600181111561125157fe5b81526020016000600181111561126357fe5b8152602001600081525090565b60008135905061127f8161223f565b92915050565b6000815190506112948161223f565b92915050565b600082601f8301126112ab57600080fd5b81516112be6112b982611f06565b611ed9565b915081818352602084019350602081019050838560208402820111156112e357600080fd5b60005b8381101561131357816112f9888261141f565b8452602084019350602083019250506001810190506112e6565b5050505092915050565b60008151905061132c81612256565b92915050565b600082601f83011261134357600080fd5b813561135661135182611f2e565b611ed9565b9150808252602083016020830185838301111561137257600080fd5b61137d83828461218b565b50505092915050565b60006040828403121561139857600080fd5b6113a26040611ed9565b905060006113b284828501611270565b60008301525060206113c68482850161140a565b60208301525092915050565b6000602082840312156113e457600080fd5b6113ee6020611ed9565b905060006113fe8482850161141f565b60008301525092915050565b6000813590506114198161226d565b92915050565b60008151905061142e8161226d565b92915050565b60006020828403121561144657600080fd5b600061145484828501611285565b91505092915050565b60008060006080848603121561147257600080fd5b600061148086828701611270565b935050602061149186828701611386565b925050606084013567ffffffffffffffff8111156114ae57600080fd5b6114ba86828701611332565b9150509250925092565b6000602082840312156114d657600080fd5b600082015167ffffffffffffffff8111156114f057600080fd5b6114fc8482850161129a565b91505092915050565b60006020828403121561151757600080fd5b60006115258482850161131d565b91505092915050565b60006020828403121561154057600080fd5b600061154e848285016113d2565b91505092915050565b60006020828403121561156957600080fd5b60006115778482850161140a565b91505092915050565b60006020828403121561159257600080fd5b60006115a08482850161141f565b91505092915050565b60006115b583836115fc565b60208301905092915050565b60006115cd8383611abd565b905092915050565b60006115e18383611bc5565b60408301905092915050565b6115f6816120fb565b82525050565b6116058161206d565b82525050565b6116148161206d565b82525050565b600061162582611f8f565b61162f8185611fed565b935061163a83611f5a565b8060005b838110156116725761164f826121e7565b61165988826115a9565b975061166483611fc6565b92505060018101905061163e565b5085935050505092915050565b600061168a82611f9a565b6116948185611ffe565b9350836020820285016116a685611f6f565b8060005b858110156116e257848403895281516116c385826115c1565b94506116ce83611fd3565b925060208a019950506001810190506116aa565b50829750879550505050505092915050565b60006116ff82611fa5565b611709818561200f565b935061171483611f7f565b8060005b8381101561174557815161172c88826115d5565b975061173783611fe0565b925050600181019050611718565b5085935050505092915050565b61175b8161207f565b82525050565b600061176c82611fbb565b6117768185612031565b935061178681856020860161219a565b80840191505092915050565b600061179d82611fb0565b6117a78185612020565b93506117b781856020860161219a565b6117c0816121fa565b840191505092915050565b6117d48161210d565b82525050565b6117e38161211f565b82525050565b6117f281612131565b82525050565b611801816120c4565b82525050565b61181081612143565b82525050565b61181f81612155565b82525050565b600061183260188361203c565b91507f63616c6c6572206973206e6f7420746865206f776e65722100000000000000006000830152602082019050919050565b6000611872601b8361203c565b91507f536166654d6174683a206164646974696f6e206f766572666c6f7700000000006000830152602082019050919050565b60006118b260248361203c565b91507f4e6f7420656e6f7567682066756e647320746f2072657061792064596458206c60008301527f6f616e21000000000000000000000000000000000000000000000000000000006020830152604082019050919050565b600061191860208361203c565b91507f5361666545524332303a206c6f772d6c6576656c2063616c6c206661696c65646000830152602082019050919050565b600061195860248361203c565b91507f4e6f206d61726b6574496420666f756e6420666f722070726f7669646564207460008301527f6f6b656e000000000000000000000000000000000000000000000000000000006020830152604082019050919050565b60006119be602a8361203c565b91507f5361666545524332303a204552433230206f7065726174696f6e20646964206e60008301527f6f742073756363656564000000000000000000000000000000000000000000006020830152604082019050919050565b6000611a2460368361203c565b91507f5361666545524332303a20617070726f76652066726f6d206e6f6e2d7a65726f60008301527f20746f206e6f6e2d7a65726f20616c6c6f77616e6365000000000000000000006020830152604082019050919050565b6000611a8a601f8361203c565b91507f5361666545524332303a2063616c6c20746f206e6f6e2d636f6e7472616374006000830152602082019050919050565b600061016083016000830151611ad660008601826117cb565b506020830151611ae96020860182611c10565b506040830151611afc6040860182611b70565b506060830151611b0f60c0860182611c10565b506080830151611b2260e0860182611c10565b5060a0830151611b366101008601826115fc565b5060c0830151611b4a610120860182611c10565b5060e0830151848203610140860152611b638282611792565b9150508091505092915050565b608082016000820151611b866000850182611752565b506020820151611b9960208501826117da565b506040820151611bac60408501826117e9565b506060820151611bbf6060850182611c10565b50505050565b604082016000820151611bdb60008501826115fc565b506020820151611bee6020850182611c10565b50505050565b602082016000820151611c0a6000850182611c10565b50505050565b611c19816120f1565b82525050565b611c28816120f1565b82525050565b6000611c3a8284611761565b915081905092915050565b6000602082019050611c5a600083018461160b565b92915050565b6000602082019050611c7560008301846115ed565b92915050565b6000604082019050611c90600083018561160b565b611c9d602083018461160b565b9392505050565b6000604082019050611cb9600083018561160b565b611cc66020830184611c1f565b9392505050565b60006040820190508181036000830152611ce781856116f4565b90508181036020830152611cfb818461167f565b90509392505050565b6000608082019050611d1960008301876117f8565b611d2660208301866117f8565b611d336040830185611c1f565b611d406060830184611807565b95945050505050565b60006020820190508181036000830152611d6281611825565b9050919050565b60006020820190508181036000830152611d8281611865565b9050919050565b60006020820190508181036000830152611da2816118a5565b9050919050565b60006020820190508181036000830152611dc28161190b565b9050919050565b60006020820190508181036000830152611de28161194b565b9050919050565b60006020820190508181036000830152611e02816119b1565b9050919050565b60006020820190508181036000830152611e2281611a17565b9050919050565b60006020820190508181036000830152611e4281611a7d565b9050919050565b6000602082019050611e5e6000830184611bf4565b92915050565b6000602082019050611e796000830184611c1f565b92915050565b600060a082019050611e946000830188611c1f565b611ea16020830187611807565b8181036040830152611eb3818661161a565b9050611ec260608301856115ed565b611ecf6080830184611816565b9695505050505050565b6000604051905081810181811067ffffffffffffffff82111715611efc57600080fd5b8060405250919050565b600067ffffffffffffffff821115611f1d57600080fd5b602082029050602081019050919050565b600067ffffffffffffffff821115611f4557600080fd5b601f19601f8301169050602081019050919050565b60008190508160005260206000209050919050565b6000819050602082019050919050565b6000819050602082019050919050565b600081549050919050565b600081519050919050565b600081519050919050565b600081519050919050565b600081519050919050565b6000600182019050919050565b6000602082019050919050565b6000602082019050919050565b600082825260208201905092915050565b600082825260208201905092915050565b600082825260208201905092915050565b600082825260208201905092915050565b600081905092915050565b600082825260208201905092915050565b600073ffffffffffffffffffffffffffffffffffffffff82169050919050565b6000612078826120d1565b9050919050565b60008115159050919050565b600081905061209982612218565b919050565b60008190506120ac82612225565b919050565b60008190506120bf82612232565b919050565b600081600f0b9050919050565b600073ffffffffffffffffffffffffffffffffffffffff82169050919050565b6000819050919050565b600061210682612167565b9050919050565b60006121188261208b565b9050919050565b600061212a8261209e565b9050919050565b600061213c826120b1565b9050919050565b600061214e826120f1565b9050919050565b6000612160826120f1565b9050919050565b600061217282612179565b9050919050565b6000612184826120d1565b9050919050565b82818337600083830152505050565b60005b838110156121b857808201518184015260208101905061219d565b838111156121c7576000848401525b50505050565b60006121e06121db8361220b565b61204d565b9050919050565b60006121f382546121cd565b9050919050565b6000601f19601f8301169050919050565b60008160001c9050919050565b6009811061222257fe5b50565b6002811061222f57fe5b50565b6002811061223c57fe5b50565b6122488161206d565b811461225357600080fd5b50565b61225f8161207f565b811461226a57600080fd5b50565b612276816120f1565b811461228157600080fd5b5056fea365627a7a72315820c302aff28b6d5592e579a1b52f32aef8b195ac8ea7f99b2c4e758c090a9cb87d6c6578706572696d656e74616cf564736f6c63430005100040",
  "source": "// SPDX-License-Identifier: MIT\r\npragma experimental ABIEncoderV2;\r\npragma solidity ^0.5.0;\r\n\r\n/* t0d0:\r\n  [x] swap USDC to WETH on Uni\r\n  [x] swap WETH to USDT on Uni\r\n  [x] swap USDT to USDC on Curve\r\n  [x] repay the loan to dYdX\r\n  [ ] send USDC/profit to user (!h0m3w0rk)\r\n*/\r\nimport \"@studydefi/money-legos/dydx/contracts/DydxFlashloanBase.sol\";\r\nimport \"@studydefi/money-legos/curvefi/contracts/ICurveFiCurve.sol\";\r\nimport \"@studydefi/money-legos/dydx/contracts/ICallee.sol\";\r\nimport \"@openzeppelin/contracts/token/ERC20/IERC20.sol\";\r\nimport \"@openzeppelin/contracts/token/ERC20/SafeERC20.sol\";\r\n\r\ninterface IUniswapV2Router02 {\r\n  function swapExactTokensForTokens(uint amountIn, uint amountOutMin, address[] calldata path, address to, uint deadline) external returns (uint[] memory amounts);\r\n}\r\n\r\ncontract Arb is ICallee, DydxFlashloanBase {\r\n\r\n  using SafeERC20 for IERC20; //for USDT (require special approve)\r\n  address payable owner;\r\n\r\n  address usdcAddress = 0xA0b86991c6218b36c1d19D4a2e9Eb0cE3606eB48;\r\n  IERC20 usdc = IERC20(usdcAddress);\r\n\r\n  address usdtAddress = 0xdAC17F958D2ee523a2206206994597C13D831ec7;\r\n  IERC20 usdt = IERC20(usdtAddress);\r\n\r\n  address wethAddress = 0xC02aaA39b223FE8D0A0e5C4F27eAD9083C756Cc2;\r\n\r\n  address soloMarginAddress = 0x1E0447b19BB6EcFdAe1e4AE1694b0C3659614e4e;\r\n  ISoloMargin solo = ISoloMargin(soloMarginAddress);\r\n\r\n  address curveFi_curve_yDai_yUsdc_yUsdt_ytUsd = 0x45F783CCE6B7FF23B2ab2D70e416cdb7D6055f51;\r\n  ICurveFiCurve curve = ICurveFiCurve(curveFi_curve_yDai_yUsdc_yUsdt_ytUsd);\r\n\r\n  address uniAddress = 0x7a250d5630B4cF539739dF2C5dAcb4c659F2488D;\r\n  IUniswapV2Router02 uni = IUniswapV2Router02(uniAddress);\r\n\r\n  address[] public swapPath = [usdcAddress, wethAddress, usdtAddress]; //for uniswap\r\n\r\n  int128 constant usdcIndex = 1; //for curvefi swap\r\n  int128 constant usdtIndex = 2; //for curvefi swap\r\n\r\n  struct MyCustomData {\r\n    uint256 amount;\r\n  }\r\n\r\n  modifier onlyOwner() {\r\n    require(msg.sender == owner, \"caller is not the owner!\");\r\n    _;\r\n  }\r\n\r\n  event usdcBalanceHistory(uint balanceBefore, uint balanceAfter);\r\n\r\n  constructor () public {\r\n    owner = msg.sender;\r\n  }\r\n\r\n  // Don't allow contract to receive Ether by mistake\r\n  function() external payable {\r\n  }\r\n\r\n  //start here\r\n  function startArb(uint256 _amount) public payable onlyOwner {\r\n    // Get marketId from token address\r\n    uint256 marketId = _getMarketIdFromTokenAddress(soloMarginAddress, usdcAddress);\r\n\r\n    // Calculate repay amount (_amount + (2 wei))\r\n    uint256 repayAmount = _getRepaymentAmountInternal(_amount);\r\n    usdc.approve(soloMarginAddress, repayAmount);\r\n\r\n    // 1. Withdraw $\r\n    // 2. Call callFunction(...)\r\n    // 3. Deposit back $\r\n    Actions.ActionArgs[] memory operations = new Actions.ActionArgs[](3);\r\n\r\n    operations[0] = _getWithdrawAction(marketId, _amount);\r\n    operations[1] = _getCallAction(abi.encode(MyCustomData({amount: repayAmount})));\r\n    operations[2] = _getDepositAction(marketId, repayAmount);\r\n\r\n    Account.Info[] memory accountInfos = new Account.Info[](1);\r\n    accountInfos[0] = _getAccountInfo();\r\n\r\n    solo.operate(accountInfos, operations);\r\n  }\r\n\r\n  // dYdX calls this\r\n  function callFunction(address sender, Account.Info memory account, bytes memory data) public {\r\n    MyCustomData memory mcd = abi.decode(data, (MyCustomData));\r\n    uint256 balOfLoanedToken = usdc.balanceOf(address(this));\r\n\r\n    require(balOfLoanedToken >= mcd.amount, \"Not enough funds to repay dYdX loan!\");\r\n    _finishArb();\r\n  }\r\n\r\n  function _finishArb() internal {\r\n    uint usdcBalance = usdc.balanceOf(address(this))-2; //minus fee\r\n    usdc.safeApprove(uniAddress, usdcBalance);\r\n    \r\n    //swap USDC => WETH => USDT on Uni\r\n    uni.swapExactTokensForTokens(usdcBalance, 1, swapPath, address(this), 2533388343);\r\n\r\n    uint usdtBalanceBefore = usdt.balanceOf(address(this));\r\n    usdt.safeApprove(curveFi_curve_yDai_yUsdc_yUsdt_ytUsd, usdtBalanceBefore);\r\n\r\n    //swap usdt for usdc on curvefi\r\n    curve.exchange_underlying(usdtIndex, usdcIndex, usdtBalanceBefore, 1);\r\n\r\n    //repay the loan to dYdX\r\n    /*!h0m3w0rk: send USDC back to the user */\r\n  }\r\n}",
  "sourcePath": "/pr0/defi_arb/src/contracts/Arb.sol",
  "compiler": {
    "name": "solc",
    "version": "0.5.16+commit.9c3226ce.Emscripten.clang"
  },
  "schemaVersion": "3.3.4",
  "updatedAt": "2021-04-21T23:44:16.150Z",
  "networkType": "ethereum",
  "devdoc": {
    "methods": {}
  },
  "userdoc": {
    "methods": {}
  }
}