{
  "contractName": "LearningSolidity",
  "abi": [
    {
      "inputs": [
        {
          "internalType": "string",
          "name": "newName",
          "type": "string"
        },
        {
          "internalType": "bool",
          "name": "isAdmin",
          "type": "bool"
        }
      ],
      "name": "setName",
      "outputs": [],
      "stateMutability": "nonpayable",
      "type": "function"
    },
    {
      "inputs": [],
      "name": "getName",
      "outputs": [
        {
          "internalType": "string",
          "name": "",
          "type": "string"
        }
      ],
      "stateMutability": "view",
      "type": "function"
    }
  ],
  "bytecode": "0x608060405234801561001057600080fd5b506104fd806100206000396000f3fe608060405234801561001057600080fd5b50600436106100365760003560e01c806312b1415b1461003b57806317d7de7c14610057575b600080fd5b61005560048036038101906100509190610253565b610075565b005b61005f610099565b60405161006c91906102e8565b60405180910390f35b80801561009457826000908051906020019061009292919061012b565b505b505050565b6060600080546100a8906103ca565b80601f01602080910402602001604051908101604052809291908181526020018280546100d4906103ca565b80156101215780601f106100f657610100808354040283529160200191610121565b820191906000526020600020905b81548152906001019060200180831161010457829003601f168201915b5050505050905090565b828054610137906103ca565b90600052602060002090601f01602090048101928261015957600085556101a0565b82601f1061017257805160ff19168380011785556101a0565b828001600101855582156101a0579182015b8281111561019f578251825591602001919060010190610184565b5b5090506101ad91906101b1565b5090565b5b808211156101ca5760008160009055506001016101b2565b5090565b60006101e16101dc8461032f565b61030a565b9050828152602081018484840111156101fd576101fc610490565b5b610208848285610388565b509392505050565b60008135905061021f816104b0565b92915050565b600082601f83011261023a5761023961048b565b5b813561024a8482602086016101ce565b91505092915050565b6000806040838503121561026a5761026961049a565b5b600083013567ffffffffffffffff81111561028857610287610495565b5b61029485828601610225565b92505060206102a585828601610210565b9150509250929050565b60006102ba82610360565b6102c4818561036b565b93506102d4818560208601610397565b6102dd8161049f565b840191505092915050565b6000602082019050818103600083015261030281846102af565b905092915050565b6000610314610325565b905061032082826103fc565b919050565b6000604051905090565b600067ffffffffffffffff82111561034a5761034961045c565b5b6103538261049f565b9050602081019050919050565b600081519050919050565b600082825260208201905092915050565b60008115159050919050565b82818337600083830152505050565b60005b838110156103b557808201518184015260208101905061039a565b838111156103c4576000848401525b50505050565b600060028204905060018216806103e257607f821691505b602082108114156103f6576103f561042d565b5b50919050565b6104058261049f565b810181811067ffffffffffffffff821117156104245761042361045c565b5b80604052505050565b7f4e487b7100000000000000000000000000000000000000000000000000000000600052602260045260246000fd5b7f4e487b7100000000000000000000000000000000000000000000000000000000600052604160045260246000fd5b600080fd5b600080fd5b600080fd5b600080fd5b6000601f19601f8301169050919050565b6104b98161037c565b81146104c457600080fd5b5056fea26469706673582212209b12b087054152404dfecf5d19704b438e893cee41fd1a55f9251a41bdc2162064736f6c63430008060033",
  "immutableReferences": {},
  "source": "// SPDX-License-Identifier: GPL-3.0\r\n\r\npragma solidity ^0.8.6;\r\n\r\ncontract LearningSolidity{\r\n    \r\n   //create a string variable.\r\n\r\n    string private name;\r\n\r\n    \r\n//modifier checks that the caller of the function is the owner\r\n    modifier onlyOwner(bool isAdmin) {\r\n         if(isAdmin){\r\n             _;\r\n         }\r\n    }\r\n\r\n//set name.  Only the admin can call because a modifier is specified\r\n    function setName(string memory newName,bool isAdmin) public onlyOwner(isAdmin){\r\n        name = newName;\r\n    }\r\n\r\n//get the name\r\n    function getName () public view returns (string memory) {\r\n        return name;\r\n    }\r\n    \r\n    \r\n}",
  "sourcePath": "C:\\myContent\\panacloud\\repos\\mateen\\defi-dapps-solidity-smart-contracts\\step07_solidity_function_modifiers\\contracts\\LearningSolidity.sol",
  "compiler": {
    "name": "solc",
    "version": "0.8.6+commit.11564f7e.Emscripten.clang"
  },
  "schemaVersion": "3.4.2",
  "updatedAt": "2021-09-20T08:57:16.136Z",
  "devdoc": {
    "kind": "dev",
    "methods": {},
    "version": 1
  },
  "userdoc": {
    "kind": "user",
    "methods": {},
    "version": 1
  }
}