{
  "contractName": "Borrower",
  "abi": [
    {
      "inputs": [
        {
          "internalType": "address payable",
          "name": "_flashMintMockWETHToken",
          "type": "address"
        }
      ],
      "payable": false,
      "stateMutability": "nonpayable",
      "type": "constructor"
    },
    {
      "anonymous": false,
      "inputs": [
        {
          "indexed": true,
          "internalType": "address",
          "name": "previousOwner",
          "type": "address"
        },
        {
          "indexed": true,
          "internalType": "address",
          "name": "newOwner",
          "type": "address"
        }
      ],
      "name": "OwnershipTransferred",
      "type": "event"
    },
    {
      "payable": true,
      "stateMutability": "payable",
      "type": "fallback"
    },
    {
      "constant": true,
      "inputs": [],
      "name": "fMockWETH",
      "outputs": [
        {
          "internalType": "contract FlashMintMockWETH",
          "name": "",
          "type": "address"
        }
      ],
      "payable": false,
      "stateMutability": "view",
      "type": "function"
    },
    {
      "constant": true,
      "inputs": [],
      "name": "isOwner",
      "outputs": [
        {
          "internalType": "bool",
          "name": "",
          "type": "bool"
        }
      ],
      "payable": false,
      "stateMutability": "view",
      "type": "function"
    },
    {
      "constant": true,
      "inputs": [],
      "name": "owner",
      "outputs": [
        {
          "internalType": "address",
          "name": "",
          "type": "address"
        }
      ],
      "payable": false,
      "stateMutability": "view",
      "type": "function"
    },
    {
      "constant": false,
      "inputs": [],
      "name": "renounceOwnership",
      "outputs": [],
      "payable": false,
      "stateMutability": "nonpayable",
      "type": "function"
    },
    {
      "constant": false,
      "inputs": [
        {
          "internalType": "address",
          "name": "newOwner",
          "type": "address"
        }
      ],
      "name": "transferOwnership",
      "outputs": [],
      "payable": false,
      "stateMutability": "nonpayable",
      "type": "function"
    },
    {
      "constant": false,
      "inputs": [
        {
          "internalType": "uint256",
          "name": "amount",
          "type": "uint256"
        }
      ],
      "name": "beginFlashMint",
      "outputs": [],
      "payable": false,
      "stateMutability": "nonpayable",
      "type": "function"
    },
    {
      "constant": false,
      "inputs": [
        {
          "internalType": "uint256",
          "name": "amount",
          "type": "uint256"
        }
      ],
      "name": "executeOnFlashMint",
      "outputs": [],
      "payable": false,
      "stateMutability": "nonpayable",
      "type": "function"
    }
  ],
  "bytecode": "0x608060405234801561001057600080fd5b506040516109653803806109658339818101604052602081101561003357600080fd5b8101908080519060200190929190505050600061005461013960201b60201c565b9050806000806101000a81548173ffffffffffffffffffffffffffffffffffffffff021916908373ffffffffffffffffffffffffffffffffffffffff1602179055508073ffffffffffffffffffffffffffffffffffffffff16600073ffffffffffffffffffffffffffffffffffffffff167f8be0079c531659141344cd1fd0a4f28419497f9722a3daafe3b4186f6b6457e060405160405180910390a35080600160006101000a81548173ffffffffffffffffffffffffffffffffffffffff021916908373ffffffffffffffffffffffffffffffffffffffff16021790555050610141565b600033905090565b610815806101506000396000f3fe6080604052600436106100705760003560e01c8063715018a61161004e578063715018a61461013f5780638da5cb5b146101565780638f32d59b146101ad578063f2fde38b146101dc57610070565b806327b01e311461007257806352e91642146100c9578063710359de14610104575b005b34801561007e57600080fd5b5061008761022d565b604051808273ffffffffffffffffffffffffffffffffffffffff1673ffffffffffffffffffffffffffffffffffffffff16815260200191505060405180910390f35b3480156100d557600080fd5b50610102600480360360208110156100ec57600080fd5b8101908080359060200190929190505050610253565b005b34801561011057600080fd5b5061013d6004803603602081101561012757600080fd5b81019080803590602001909291905050506102fc565b005b34801561014b57600080fd5b50610154610406565b005b34801561016257600080fd5b5061016b61053f565b604051808273ffffffffffffffffffffffffffffffffffffffff1673ffffffffffffffffffffffffffffffffffffffff16815260200191505060405180910390f35b3480156101b957600080fd5b506101c2610568565b604051808215151515815260200191505060405180910390f35b3480156101e857600080fd5b5061022b600480360360208110156101ff57600080fd5b81019080803573ffffffffffffffffffffffffffffffffffffffff1690602001909291905050506105c6565b005b600160009054906101000a900473ffffffffffffffffffffffffffffffffffffffff1681565b600160009054906101000a900473ffffffffffffffffffffffffffffffffffffffff1673ffffffffffffffffffffffffffffffffffffffff163373ffffffffffffffffffffffffffffffffffffffff16146102f9576040517f08c379a00000000000000000000000000000000000000000000000000000000081526004018080602001828103825260228152602001806107bf6022913960400191505060405180910390fd5b50565b610304610568565b610376576040517f08c379a00000000000000000000000000000000000000000000000000000000081526004018080602001828103825260208152602001807f4f776e61626c653a2063616c6c6572206973206e6f7420746865206f776e657281525060200191505060405180910390fd5b600160009054906101000a900473ffffffffffffffffffffffffffffffffffffffff1673ffffffffffffffffffffffffffffffffffffffff166319ffd7ce826040518263ffffffff1660e01b815260040180828152602001915050600060405180830381600087803b1580156103eb57600080fd5b505af11580156103ff573d6000803e3d6000fd5b5050505050565b61040e610568565b610480576040517f08c379a00000000000000000000000000000000000000000000000000000000081526004018080602001828103825260208152602001807f4f776e61626c653a2063616c6c6572206973206e6f7420746865206f776e657281525060200191505060405180910390fd5b600073ffffffffffffffffffffffffffffffffffffffff166000809054906101000a900473ffffffffffffffffffffffffffffffffffffffff1673ffffffffffffffffffffffffffffffffffffffff167f8be0079c531659141344cd1fd0a4f28419497f9722a3daafe3b4186f6b6457e060405160405180910390a360008060006101000a81548173ffffffffffffffffffffffffffffffffffffffff021916908373ffffffffffffffffffffffffffffffffffffffff160217905550565b60008060009054906101000a900473ffffffffffffffffffffffffffffffffffffffff16905090565b60008060009054906101000a900473ffffffffffffffffffffffffffffffffffffffff1673ffffffffffffffffffffffffffffffffffffffff166105aa61064c565b73ffffffffffffffffffffffffffffffffffffffff1614905090565b6105ce610568565b610640576040517f08c379a00000000000000000000000000000000000000000000000000000000081526004018080602001828103825260208152602001807f4f776e61626c653a2063616c6c6572206973206e6f7420746865206f776e657281525060200191505060405180910390fd5b61064981610654565b50565b600033905090565b600073ffffffffffffffffffffffffffffffffffffffff168173ffffffffffffffffffffffffffffffffffffffff1614156106da576040517f08c379a00000000000000000000000000000000000000000000000000000000081526004018080602001828103825260268152602001806107996026913960400191505060405180910390fd5b8073ffffffffffffffffffffffffffffffffffffffff166000809054906101000a900473ffffffffffffffffffffffffffffffffffffffff1673ffffffffffffffffffffffffffffffffffffffff167f8be0079c531659141344cd1fd0a4f28419497f9722a3daafe3b4186f6b6457e060405160405180910390a3806000806101000a81548173ffffffffffffffffffffffffffffffffffffffff021916908373ffffffffffffffffffffffffffffffffffffffff1602179055505056fe4f776e61626c653a206e6577206f776e657220697320746865207a65726f20616464726573736f6e6c7920466c6173684d696e744d6f636b574554482063616e2065786563757465a265627a7a723158209e68260f040bda8c6a607e705b9e8dbb04637cb0fa42f768a9bb888bd6e6a3a264736f6c63430005100032",
  "source": "// SPDX-License-Identifier: MIT\npragma solidity 0.5.16;\n\nimport \"@openzeppelin/contracts/ownership/Ownable.sol\";\nimport \"./FlashMintMockWETH.sol\";\n\ncontract Borrower is Ownable {\n\n    FlashMintMockWETH public fMockWETH; // address of FlashMintMockWETH (fMockWETH) contract\n\n    constructor(address payable _flashMintMockWETHToken) public {\n        fMockWETH = FlashMintMockWETH(_flashMintMockWETHToken);\n    }\n\n    // required to receive ETH in case you want to `withdraw` some fMockWETH for real ETH during `executeOnFlashMint`\n    function () external payable {}\n\n    function beginFlashMint(uint256 amount) public onlyOwner {\n        fMockWETH.flashMint(amount);\n    }\n\n    function executeOnFlashMint(uint256 amount) external {\n        require(msg.sender == address(fMockWETH), \"only FlashMintMockWETH can execute\");\n\n        // When this executes, this contract will have `amount` more fMockWETH tokens.\n\n        // Do whatever you want with those tokens here.\n        // You can even redeem them for the underlying by calling `fMockWETH.withdraw(someAmount)`\n        // But you must make sure this contract holds at least `amount` fMockWETH tokens before this function\n        // finishes executing or else the transaction will be reverted by the `FlashMintMockWETH.flashMint` function.\n    }\n}\n",
  "sourcePath": "/Users/zed/Desktop/DAPP_UNIVERSITY/FLASHLOAN_MASTERCLASS/flash_mint/contracts/Borrower.sol",
  "compiler": {
    "name": "solc",
    "version": "0.5.16+commit.9c3226ce.Emscripten.clang"
  },
  "schemaVersion": "3.4.1",
  "updatedAt": "2021-09-03T19:54:17.193Z",
  "networkType": "ethereum",
  "devdoc": {
    "methods": {
      "isOwner()": {
        "details": "Returns true if the caller is the current owner."
      },
      "owner()": {
        "details": "Returns the address of the current owner."
      },
      "renounceOwnership()": {
        "details": "Leaves the contract without owner. It will not be possible to call `onlyOwner` functions anymore. Can only be called by the current owner.     * NOTE: Renouncing ownership will leave the contract without an owner, thereby removing any functionality that is only available to the owner."
      },
      "transferOwnership(address)": {
        "details": "Transfers ownership of the contract to a new account (`newOwner`). Can only be called by the current owner."
      }
    }
  },
  "userdoc": {
    "methods": {}
  }
}