{
  "contractName": "Test",
  "abi": [
    {
      "inputs": [],
      "name": "getResult",
      "outputs": [
        {
          "internalType": "uint256",
          "name": "",
          "type": "uint256"
        }
      ],
      "stateMutability": "pure",
      "type": "function"
    }
  ],
  "bytecode": "0x608060405234801561001057600080fd5b50610163806100206000396000f3fe608060405234801561001057600080fd5b506004361061002b5760003560e01c8063de29278914610030575b600080fd5b61003861004e565b6040516100459190610083565b60405180910390f35b6000806001905060006002905060008183610069919061009e565b905080935050505090565b61007d816100f4565b82525050565b60006020820190506100986000830184610074565b92915050565b60006100a9826100f4565b91506100b4836100f4565b9250827fffffffffffffffffffffffffffffffffffffffffffffffffffffffffffffffff038211156100e9576100e86100fe565b5b828201905092915050565b6000819050919050565b7f4e487b7100000000000000000000000000000000000000000000000000000000600052601160045260246000fdfea26469706673582212205fd8180dfba7aa2849fc60ba56227437c7b95290c5fc420830d306c323b03c5764736f6c63430008060033",
  "immutableReferences": {},
  "source": "// SPDX-License-Identifier: GPL-3.0\npragma solidity ^0.8.6;\n\n\nabstract contract Calculator {\n   function getResult() public virtual pure returns(uint);\n}\n\ncontract Test is Calculator {\n   function getResult() public override pure returns(uint) {\n      uint a = 1;\n      uint b = 2;\n      uint result = a + b;\n      return result;\n   }\n}\n\n",
  "sourcePath": "/Users/mateenmustafa/Desktop/defi-dapps-solidity-smart-contracts/step15_solidity_abstract_contracts/contracts/LearningSolidity.sol",
  "compiler": {
    "name": "solc",
    "version": "0.8.6+commit.11564f7e.Emscripten.clang"
  },
  "schemaVersion": "3.4.3",
  "updatedAt": "2021-09-21T11:06:35.042Z",
  "devdoc": {
    "kind": "dev",
    "methods": {},
    "version": 1
  },
  "userdoc": {
    "kind": "user",
    "methods": {},
    "version": 1
  }
}