{
  "contractName": "SocialMedia",
  "abi": [
    {
      "anonymous": false,
      "inputs": [
        {
          "indexed": false,
          "internalType": "uint256",
          "name": "id",
          "type": "uint256"
        },
        {
          "indexed": false,
          "internalType": "string",
          "name": "text",
          "type": "string"
        },
        {
          "indexed": false,
          "internalType": "address",
          "name": "postedBy",
          "type": "address"
        },
        {
          "indexed": false,
          "internalType": "uint256",
          "name": "postId",
          "type": "uint256"
        }
      ],
      "name": "commentCreated",
      "type": "event"
    },
    {
      "anonymous": false,
      "inputs": [
        {
          "indexed": false,
          "internalType": "uint256",
          "name": "id",
          "type": "uint256"
        },
        {
          "indexed": false,
          "internalType": "string",
          "name": "text",
          "type": "string"
        },
        {
          "indexed": false,
          "internalType": "address",
          "name": "postedBy",
          "type": "address"
        }
      ],
      "name": "postCreated",
      "type": "event"
    },
    {
      "constant": true,
      "inputs": [
        {
          "internalType": "uint256",
          "name": "",
          "type": "uint256"
        }
      ],
      "name": "commentCount",
      "outputs": [
        {
          "internalType": "uint256",
          "name": "",
          "type": "uint256"
        }
      ],
      "payable": false,
      "stateMutability": "view",
      "type": "function"
    },
    {
      "constant": true,
      "inputs": [
        {
          "internalType": "uint256",
          "name": "",
          "type": "uint256"
        },
        {
          "internalType": "uint256",
          "name": "",
          "type": "uint256"
        }
      ],
      "name": "comments",
      "outputs": [
        {
          "internalType": "uint256",
          "name": "id",
          "type": "uint256"
        },
        {
          "internalType": "string",
          "name": "text",
          "type": "string"
        },
        {
          "internalType": "address",
          "name": "postedBy",
          "type": "address"
        },
        {
          "internalType": "uint256",
          "name": "postId",
          "type": "uint256"
        }
      ],
      "payable": false,
      "stateMutability": "view",
      "type": "function"
    },
    {
      "constant": true,
      "inputs": [],
      "name": "postCount",
      "outputs": [
        {
          "internalType": "uint256",
          "name": "",
          "type": "uint256"
        }
      ],
      "payable": false,
      "stateMutability": "view",
      "type": "function"
    },
    {
      "constant": true,
      "inputs": [
        {
          "internalType": "uint256",
          "name": "",
          "type": "uint256"
        }
      ],
      "name": "posts",
      "outputs": [
        {
          "internalType": "uint256",
          "name": "id",
          "type": "uint256"
        },
        {
          "internalType": "string",
          "name": "text",
          "type": "string"
        },
        {
          "internalType": "address",
          "name": "postedBy",
          "type": "address"
        }
      ],
      "payable": false,
      "stateMutability": "view",
      "type": "function"
    },
    {
      "constant": false,
      "inputs": [
        {
          "internalType": "string",
          "name": "_text",
          "type": "string"
        }
      ],
      "name": "createPost",
      "outputs": [],
      "payable": false,
      "stateMutability": "nonpayable",
      "type": "function"
    },
    {
      "constant": false,
      "inputs": [
        {
          "internalType": "string",
          "name": "_text",
          "type": "string"
        },
        {
          "internalType": "uint256",
          "name": "_postId",
          "type": "uint256"
        }
      ],
      "name": "createComment",
      "outputs": [],
      "payable": false,
      "stateMutability": "nonpayable",
      "type": "function"
    }
  ],
  "bytecode": "0x60806040526000805534801561001457600080fd5b50610adc806100246000396000f3fe608060405234801561001057600080fd5b50600436106100625760003560e01c80630b1e7f831461006757806317906c2e14610148578063355933f214610166578063c7303c61146101a8578063f72ead1314610263578063fc6c776f14610328575b600080fd5b6100936004803603602081101561007d57600080fd5b810190808035906020019092919050505061041a565b60405180848152602001806020018373ffffffffffffffffffffffffffffffffffffffff1673ffffffffffffffffffffffffffffffffffffffff168152602001828103825284818151815260200191508051906020019080838360005b8381101561010b5780820151818401526020810190506100f0565b50505050905090810190601f1680156101385780820380516001836020036101000a031916815260200191505b5094505050505060405180910390f35b6101506104fc565b6040518082815260200191505060405180910390f35b6101926004803603602081101561017c57600080fd5b8101908080359060200190929190505050610502565b6040518082815260200191505060405180910390f35b610261600480360360208110156101be57600080fd5b81019080803590602001906401000000008111156101db57600080fd5b8201836020820111156101ed57600080fd5b8035906020019184600183028401116401000000008311171561020f57600080fd5b91908080601f016020809104026020016040519081016040528093929190818152602001838380828437600081840152601f19601f82011690508083019250505050505050919291929050505061051a565b005b6103266004803603604081101561027957600080fd5b810190808035906020019064010000000081111561029657600080fd5b8201836020820111156102a857600080fd5b803590602001918460018302840111640100000000831117156102ca57600080fd5b91908080601f016020809104026020016040519081016040528093929190818152602001838380828437600081840152601f19601f820116905080830192505050505050509192919290803590602001909291905050506106ce565b005b61035e6004803603604081101561033e57600080fd5b81019080803590602001909291908035906020019092919050505061090d565b60405180858152602001806020018473ffffffffffffffffffffffffffffffffffffffff1673ffffffffffffffffffffffffffffffffffffffff168152602001838152602001828103825285818151815260200191508051906020019080838360005b838110156103dc5780820151818401526020810190506103c1565b50505050905090810190601f1680156104095780820380516001836020036101000a031916815260200191505b509550505050505060405180910390f35b6001602052806000526040600020600091509050806000015490806001018054600181600116156101000203166002900480601f0160208091040260200160405190810160405280929190818152602001828054600181600116156101000203166002900480156104cc5780601f106104a1576101008083540402835291602001916104cc565b820191906000526020600020905b8154815290600101906020018083116104af57829003601f168201915b5050505050908060020160009054906101000a900473ffffffffffffffffffffffffffffffffffffffff16905083565b60005481565b60026020528060005260406000206000915090505481565b600081511161052857600080fd5b6000808154809291906001019190505550604051806060016040528060005481526020018281526020013373ffffffffffffffffffffffffffffffffffffffff1681525060016000805481526020019081526020016000206000820151816000015560208201518160010190805190602001906105a6929190610a02565b5060408201518160020160006101000a81548173ffffffffffffffffffffffffffffffffffffffff021916908373ffffffffffffffffffffffffffffffffffffffff1602179055509050507f60cd561ea018d62cacb3f72e919690f8ad61c8aaed86da86feaf4e736a4f146a600054823360405180848152602001806020018373ffffffffffffffffffffffffffffffffffffffff1673ffffffffffffffffffffffffffffffffffffffff168152602001828103825284818151815260200191508051906020019080838360005b8381101561068f578082015181840152602081019050610674565b50505050905090810190601f1680156106bc5780820380516001836020036101000a031916815260200191505b5094505050505060405180910390a150565b60008251116106dc57600080fd5b6000811180156106ee57506000548111155b6106f757600080fd5b60026000828152602001908152602001600020600081548092919060010191905055506040518060800160405280600260008481526020019081526020016000205481526020018381526020013373ffffffffffffffffffffffffffffffffffffffff16815260200182815250600360008381526020019081526020016000206000600260008581526020019081526020016000205481526020019081526020016000206000820151816000015560208201518160010190805190602001906107c1929190610a02565b5060408201518160020160006101000a81548173ffffffffffffffffffffffffffffffffffffffff021916908373ffffffffffffffffffffffffffffffffffffffff160217905550606082015181600301559050507fb0449a55acc16357f63a7d8afc2a5aeb13851a4e8046e16f7dba714010154e9f600260008381526020019081526020016000205483338460405180858152602001806020018473ffffffffffffffffffffffffffffffffffffffff1673ffffffffffffffffffffffffffffffffffffffff168152602001838152602001828103825285818151815260200191508051906020019080838360005b838110156108cc5780820151818401526020810190506108b1565b50505050905090810190601f1680156108f95780820380516001836020036101000a031916815260200191505b509550505050505060405180910390a15050565b600360205281600052604060002060205280600052604060002060009150915050806000015490806001018054600181600116156101000203166002900480601f0160208091040260200160405190810160405280929190818152602001828054600181600116156101000203166002900480156109cc5780601f106109a1576101008083540402835291602001916109cc565b820191906000526020600020905b8154815290600101906020018083116109af57829003601f168201915b5050505050908060020160009054906101000a900473ffffffffffffffffffffffffffffffffffffffff16908060030154905084565b828054600181600116156101000203166002900490600052602060002090601f016020900481019282601f10610a4357805160ff1916838001178555610a71565b82800160010185558215610a71579182015b82811115610a70578251825591602001919060010190610a55565b5b509050610a7e9190610a82565b5090565b610aa491905b80821115610aa0576000816000905550600101610a88565b5090565b9056fea265627a7a723158205a3c9b221e129fd9878e188c8c176df7266b578e5d89c8e5a8d88ef3f343243d64736f6c63430005100032",
  "source": "// SPDX-License-Identifier: MIT\npragma solidity >=0.4.22 <0.9.0;\n\ncontract SocialMedia {\n\n uint public postCount = 0;\n\nmapping(uint => socialMediaPost) public posts;\nmapping(uint => uint) public commentCount;\nmapping(uint => mapping(uint => socialMediaComment)) public comments;\n\n\n   struct socialMediaPost {\n        uint id;\n        string text;\n        address postedBy;\n    }\n\n       struct socialMediaComment {\n        uint id;\n        string text;\n        address postedBy;\n        uint postId;\n    }\n\n       event postCreated(\n        uint id,\n        string text,\n        address postedBy\n    );\n\n         event commentCreated(\n      uint id,\n        string text,\n        address postedBy,\n        uint postId\n    );\n\n\n\nfunction createPost (string memory _text ) public {\n\n    require(bytes(_text).length > 0);\n\n    postCount++;\n\n    posts[postCount] = socialMediaPost(postCount,_text,msg.sender);\n    emit postCreated(postCount, _text, msg.sender);\n\n    \n}\n\n\nfunction createComment (string memory _text,uint _postId) public {\n\n    require(bytes(_text).length > 0);\n\n\n    require(_postId > 0 && _postId <= postCount);\n\n\n    commentCount[_postId]++;\n\n    comments[_postId][commentCount[_postId]] = socialMediaComment(commentCount[_postId],_text,msg.sender,_postId);\n    emit commentCreated(commentCount[_postId], _text, msg.sender, _postId);\n    \n    \n}\n\n\n\n}\n",
  "sourcePath": "C:\\Users\\ASIF KAMRAN\\Downloads\\defi-dapps-solidity-smart-contracts-main\\defi-dapps-solidity-smart-contracts-main\\step33_web3_gatsby_examples\\socialMediaPosts_app\\backend\\contracts\\socialMedia.sol",
  "compiler": {
    "name": "solc",
    "version": "0.5.16+commit.9c3226ce.Emscripten.clang"
  },
  "schemaVersion": "3.4.3",
  "updatedAt": "2021-09-12T09:25:54.237Z",
  "networkType": "ethereum",
  "devdoc": {
    "methods": {}
  },
  "userdoc": {
    "methods": {}
  }
}