{
  "contractName": "RaffleLottery",
  "abi": [
    {
      "inputs": [
        {
          "internalType": "uint256",
          "name": "_feePercent",
          "type": "uint256"
        },
        {
          "internalType": "uint256",
          "name": "_ticketPrice",
          "type": "uint256"
        },
        {
          "internalType": "uint256",
          "name": "_totalTickets",
          "type": "uint256"
        },
        {
          "internalType": "address",
          "name": "_VRF",
          "type": "address"
        },
        {
          "internalType": "address",
          "name": "_linkToken",
          "type": "address"
        },
        {
          "internalType": "bytes32",
          "name": "_keyHash",
          "type": "bytes32"
        },
        {
          "internalType": "uint256",
          "name": "_feeLink",
          "type": "uint256"
        }
      ],
      "stateMutability": "nonpayable",
      "type": "constructor"
    },
    {
      "anonymous": false,
      "inputs": [
        {
          "indexed": true,
          "internalType": "address",
          "name": "_entrant",
          "type": "address"
        },
        {
          "indexed": false,
          "internalType": "uint256",
          "name": "_raffleId",
          "type": "uint256"
        },
        {
          "indexed": false,
          "internalType": "uint256",
          "name": "_numberTickets",
          "type": "uint256"
        },
        {
          "indexed": false,
          "internalType": "bool",
          "name": "_hasChange",
          "type": "bool"
        }
      ],
      "name": "Entered",
      "type": "event"
    },
    {
      "anonymous": false,
      "inputs": [
        {
          "indexed": true,
          "internalType": "address",
          "name": "_winner",
          "type": "address"
        },
        {
          "indexed": false,
          "internalType": "uint256",
          "name": "_raffleId",
          "type": "uint256"
        },
        {
          "indexed": false,
          "internalType": "uint256",
          "name": "_numberTickets",
          "type": "uint256"
        },
        {
          "indexed": false,
          "internalType": "uint256",
          "name": "_winnings",
          "type": "uint256"
        }
      ],
      "name": "Winner",
      "type": "event"
    },
    {
      "inputs": [],
      "name": "canRaffle",
      "outputs": [
        {
          "internalType": "bool",
          "name": "",
          "type": "bool"
        }
      ],
      "stateMutability": "view",
      "type": "function",
      "constant": true
    },
    {
      "inputs": [],
      "name": "feeAccount",
      "outputs": [
        {
          "internalType": "address payable",
          "name": "",
          "type": "address"
        }
      ],
      "stateMutability": "view",
      "type": "function",
      "constant": true
    },
    {
      "inputs": [],
      "name": "feeLink",
      "outputs": [
        {
          "internalType": "uint256",
          "name": "",
          "type": "uint256"
        }
      ],
      "stateMutability": "view",
      "type": "function",
      "constant": true
    },
    {
      "inputs": [],
      "name": "feePercent",
      "outputs": [
        {
          "internalType": "uint256",
          "name": "",
          "type": "uint256"
        }
      ],
      "stateMutability": "view",
      "type": "function",
      "constant": true
    },
    {
      "inputs": [
        {
          "internalType": "address",
          "name": "",
          "type": "address"
        }
      ],
      "name": "feesEarned",
      "outputs": [
        {
          "internalType": "uint256",
          "name": "",
          "type": "uint256"
        }
      ],
      "stateMutability": "view",
      "type": "function",
      "constant": true
    },
    {
      "inputs": [],
      "name": "isOpen",
      "outputs": [
        {
          "internalType": "bool",
          "name": "",
          "type": "bool"
        }
      ],
      "stateMutability": "view",
      "type": "function",
      "constant": true
    },
    {
      "inputs": [],
      "name": "keyHash",
      "outputs": [
        {
          "internalType": "bytes32",
          "name": "",
          "type": "bytes32"
        }
      ],
      "stateMutability": "view",
      "type": "function",
      "constant": true
    },
    {
      "inputs": [],
      "name": "latestWinner",
      "outputs": [
        {
          "internalType": "address",
          "name": "",
          "type": "address"
        }
      ],
      "stateMutability": "view",
      "type": "function",
      "constant": true
    },
    {
      "inputs": [],
      "name": "linkToken",
      "outputs": [
        {
          "internalType": "address",
          "name": "",
          "type": "address"
        }
      ],
      "stateMutability": "view",
      "type": "function",
      "constant": true
    },
    {
      "inputs": [
        {
          "internalType": "uint256",
          "name": "",
          "type": "uint256"
        },
        {
          "internalType": "address",
          "name": "",
          "type": "address"
        }
      ],
      "name": "numberTickets",
      "outputs": [
        {
          "internalType": "uint256",
          "name": "",
          "type": "uint256"
        }
      ],
      "stateMutability": "view",
      "type": "function",
      "constant": true
    },
    {
      "inputs": [],
      "name": "raffleId",
      "outputs": [
        {
          "internalType": "uint256",
          "name": "",
          "type": "uint256"
        }
      ],
      "stateMutability": "view",
      "type": "function",
      "constant": true
    },
    {
      "inputs": [],
      "name": "randomResult",
      "outputs": [
        {
          "internalType": "uint256",
          "name": "",
          "type": "uint256"
        }
      ],
      "stateMutability": "view",
      "type": "function",
      "constant": true
    },
    {
      "inputs": [
        {
          "internalType": "bytes32",
          "name": "requestId",
          "type": "bytes32"
        },
        {
          "internalType": "uint256",
          "name": "randomness",
          "type": "uint256"
        }
      ],
      "name": "rawFulfillRandomness",
      "outputs": [],
      "stateMutability": "nonpayable",
      "type": "function"
    },
    {
      "inputs": [],
      "name": "reqId",
      "outputs": [
        {
          "internalType": "bytes32",
          "name": "",
          "type": "bytes32"
        }
      ],
      "stateMutability": "view",
      "type": "function",
      "constant": true
    },
    {
      "inputs": [],
      "name": "ticketNumber",
      "outputs": [
        {
          "internalType": "uint256",
          "name": "",
          "type": "uint256"
        }
      ],
      "stateMutability": "view",
      "type": "function",
      "constant": true
    },
    {
      "inputs": [
        {
          "internalType": "uint256",
          "name": "",
          "type": "uint256"
        }
      ],
      "name": "ticketOwners",
      "outputs": [
        {
          "internalType": "address",
          "name": "",
          "type": "address"
        }
      ],
      "stateMutability": "view",
      "type": "function",
      "constant": true
    },
    {
      "inputs": [],
      "name": "ticketPrice",
      "outputs": [
        {
          "internalType": "uint256",
          "name": "",
          "type": "uint256"
        }
      ],
      "stateMutability": "view",
      "type": "function",
      "constant": true
    },
    {
      "inputs": [],
      "name": "totalTickets",
      "outputs": [
        {
          "internalType": "uint256",
          "name": "",
          "type": "uint256"
        }
      ],
      "stateMutability": "view",
      "type": "function",
      "constant": true
    },
    {
      "inputs": [
        {
          "internalType": "address",
          "name": "",
          "type": "address"
        }
      ],
      "name": "totalWinnings",
      "outputs": [
        {
          "internalType": "uint256",
          "name": "",
          "type": "uint256"
        }
      ],
      "stateMutability": "view",
      "type": "function",
      "constant": true
    },
    {
      "inputs": [],
      "name": "vrf",
      "outputs": [
        {
          "internalType": "address",
          "name": "",
          "type": "address"
        }
      ],
      "stateMutability": "view",
      "type": "function",
      "constant": true
    },
    {
      "inputs": [
        {
          "internalType": "uint256",
          "name": "",
          "type": "uint256"
        }
      ],
      "name": "winners",
      "outputs": [
        {
          "internalType": "address",
          "name": "",
          "type": "address"
        }
      ],
      "stateMutability": "view",
      "type": "function",
      "constant": true
    },
    {
      "inputs": [],
      "name": "winningTicket",
      "outputs": [
        {
          "internalType": "uint256",
          "name": "",
          "type": "uint256"
        }
      ],
      "stateMutability": "view",
      "type": "function",
      "constant": true
    },
    {
      "stateMutability": "payable",
      "type": "receive",
      "payable": true
    },
    {
      "inputs": [
        {
          "internalType": "uint256",
          "name": "_numTickets",
          "type": "uint256"
        }
      ],
      "name": "enterRaffle",
      "outputs": [],
      "stateMutability": "payable",
      "type": "function",
      "payable": true
    },
    {
      "inputs": [],
      "name": "completeRaffle",
      "outputs": [],
      "stateMutability": "nonpayable",
      "type": "function"
    },
    {
      "inputs": [],
      "name": "getRandomNumber",
      "outputs": [
        {
          "internalType": "bytes32",
          "name": "requestId",
          "type": "bytes32"
        }
      ],
      "stateMutability": "nonpayable",
      "type": "function"
    },
    {
      "inputs": [],
      "name": "withdrawLink",
      "outputs": [],
      "stateMutability": "nonpayable",
      "type": "function"
    }
  ],
  "bytecode": "0x60c06040526008805461ff001960ff199091166001171661010017905534801561002857600080fd5b50604051611451380380611451833981810160405260e081101561004b57600080fd5b5080516020820151604083015160608085015160808087015160a08089015160c0909901516001600160601b031985871b81169092529482901b16909152600195909555600280546001600160a01b031990811633179091556006949094556005929092556009805484166001600160a01b03938416908117909155600b95909555600c55600a80549092169216918217905590611350610101600039806109c9528061107152508061104252506113506000f3fe6080604052600436106101855760003560e01c80638dc654a2116100d1578063c26eea541161008a578063dbdff2c111610064578063dbdff2c114610417578063dd11247e1461042c578063eb2dbcf614610441578063f5a823531461046b5761018c565b8063c26eea54146103d8578063c54c7da6146103ed578063c6a4bcde146104025761018c565b80638dc654a21461030c578063920688c71461032157806394985ddd14610336578063a2fb117514610366578063a480f65014610390578063b375603c146103c35761018c565b806347535d7b1161013e57806365e17c9d1161011857806365e17c9d1461029a5780637fd6f15c146102af5780638997ce4e146102c45780638b8840e0146102d95761018c565b806347535d7b1461024757806357970e931461027057806361728f39146102855761018c565b806306ef53e0146101915780630c949043146101c25780631209b1f6146101d757806329a7cb9c146101fe5780632e519f901461021357806342619f66146102325761018c565b3661018c57005b600080fd5b34801561019d57600080fd5b506101a66104a4565b604080516001600160a01b039092168252519081900360200190f35b3480156101ce57600080fd5b506101a66104b9565b3480156101e357600080fd5b506101ec6104c8565b60408051918252519081900360200190f35b34801561020a57600080fd5b506101ec6104ce565b6102306004803603602081101561022957600080fd5b50356104d4565b005b34801561023e57600080fd5b506101ec61080a565b34801561025357600080fd5b5061025c610810565b604080519115158252519081900360200190f35b34801561027c57600080fd5b506101a6610819565b34801561029157600080fd5b506101ec610828565b3480156102a657600080fd5b506101a661082e565b3480156102bb57600080fd5b506101ec61083d565b3480156102d057600080fd5b506101ec610843565b3480156102e557600080fd5b506101ec600480360360208110156102fc57600080fd5b50356001600160a01b0316610849565b34801561031857600080fd5b5061023061085b565b34801561032d57600080fd5b5061025c6109b0565b34801561034257600080fd5b506102306004803603604081101561035957600080fd5b50803590602001356109be565b34801561037257600080fd5b506101a66004803603602081101561038957600080fd5b5035610a45565b34801561039c57600080fd5b506101ec600480360360208110156103b357600080fd5b50356001600160a01b0316610a60565b3480156103cf57600080fd5b506101ec610a72565b3480156103e457600080fd5b506101ec610a78565b3480156103f957600080fd5b506101ec610a7e565b34801561040e57600080fd5b50610230610a84565b34801561042357600080fd5b506101ec610eff565b34801561043857600080fd5b506101ec610fca565b34801561044d57600080fd5b506101a66004803603602081101561046457600080fd5b5035610fd0565b34801561047757600080fd5b506101ec6004803603604081101561048e57600080fd5b50803590602001356001600160a01b0316610feb565b6008546201000090046001600160a01b031681565b6009546001600160a01b031681565b60065481565b600c5481565b60085460ff161515600114610530576040805162461bcd60e51b815260206004820152601760248201527f526166666c65206973206e6f7420617661696c61626c65000000000000000000604482015290519081900360640190fd5b60085460ff610100909104161515600114610589576040805162461bcd60e51b8152602060048201526014602482015273526166666c65206e6f7420617661696c61626c6560601b604482015290519081900360640190fd5b600181101580156105a05750600454600554038111155b6105f1576040805162461bcd60e51b815260206004820152601960248201527f496e76616c6964204e756d626572206f66205469636b65747300000000000000604482015290519081900360640190fd5b60045460055490820190811115610642576040805162461bcd60e51b815260206004820152601060248201526f105b1b081d1a58dad95d1cc81cdbdb1960821b604482015290519081900360640190fd5b600654341015610699576040805162461bcd60e51b815260206004820152601860248201527f4e6f7420656e6f75676820746f20627579207469636b65740000000000000000604482015290519081900360640190fd5b6000826006540234111561074c57600654604051600091606091339187023403908481818185875af1925050503d80600081146106f2576040519150601f19603f3d011682016040523d82523d6000602084013e6106f7565b606091505b509150915081610745576040805162461bcd60e51b81526020600482015260146024820152732330b4b632b2103a379039b2b7321022ba3432b960611b604482015290519081900360640190fd5b6001925050505b60015b8381116107885760048054600090815260136020526040902080546001600160a01b03191633179055805460019081019091550161074f565b506003546000908152600f60209081526040808320338452909152902080548401905560055482106107bf576008805460ff191690555b6003546040805191825260208201859052821515828201525133917fa22b0f8f9aa1356073af1d0964796ed0d86c3b784b3ac91be3cd2fcff0e84d36919081900360600190a2505050565b600d5481565b60085460ff1681565b600a546001600160a01b031681565b600b5481565b6002546001600160a01b031681565b60015481565b600e5481565b60106020526000908152604090205481565b6002546001600160a01b031633146108a45760405162461bcd60e51b815260040180806020018281038252602a8152602001806112f1602a913960400191505060405180910390fd5b6008805461ff0019169055600a54600254604080516370a0823160e01b815230600482015290516001600160a01b039384169363a9059cbb93169184916370a0823191602480820192602092909190829003018186803b15801561090757600080fd5b505afa15801561091b573d6000803e3d6000fd5b505050506040513d602081101561093157600080fd5b5051604080516001600160e01b031960e086901b1681526001600160a01b03909316600484015260248301919091525160448083019260209291908290030181600087803b15801561098257600080fd5b505af1158015610996573d6000803e3d6000fd5b505050506040513d60208110156109ac57600080fd5b5050565b600854610100900460ff1681565b336001600160a01b037f00000000000000000000000000000000000000000000000000000000000000001614610a3b576040805162461bcd60e51b815260206004820152601f60248201527f4f6e6c7920565246436f6f7264696e61746f722063616e2066756c66696c6c00604482015290519081900360640190fd5b6109ac8282611008565b6012602052600090815260409020546001600160a01b031681565b60116020526000908152604090205481565b60035481565b60075481565b60045481565b6003546000908152600f6020908152604080832033845290915290205460011115610aec576040805162461bcd60e51b81526020600482015260136024820152724f6e6c79205469636b657420486f6c6465727360681b604482015290519081900360640190fd5b60085460ff1615610b3b576040805162461bcd60e51b81526020600482015260146024820152732930b33336329034b99039ba34b6361037b832b760611b604482015290519081900360640190fd5b6000610b4561100e565b60078190556000818152601360209081526040808320546003548452601290925280832080546001600160a01b0319166001600160a01b039093169283179055600154905193945090924792606484049092029182840391606090869084908481818185875af1925050503d8060008114610bdc576040519150601f19603f3d011682016040523d82523d6000602084013e610be1565b606091505b509150915081610c2f576040805162461bcd60e51b81526020600482015260146024820152732330b4b632b2103a379039b2b7321022ba3432b960611b604482015290519081900360640190fd5b600280546040516000926060926001600160a01b031691908804908481818185875af1925050503d8060008114610c82576040519150601f19603f3d011682016040523d82523d6000602084013e610c87565b606091505b509150915081610cd5576040805162461bcd60e51b81526020600482015260146024820152732330b4b632b2103a379039b2b7321022ba3432b960611b604482015290519081900360640190fd5b600060603360028960405191900490600081818185875af1925050503d8060008114610d1d576040519150601f19603f3d011682016040523d82523d6000602084013e610d22565b606091505b509150915081610d70576040805162461bcd60e51b81526020600482015260146024820152732330b4b632b2103a379039b2b7321022ba3432b960611b604482015290519081900360640190fd5b600c54600a54604080516370a0823160e01b815230600482015290516001600160a01b03909216916370a0823191602480820192602092909190829003018186803b158015610dbe57600080fd5b505afa158015610dd2573d6000803e3d6000fd5b505050506040513d6020811015610de857600080fd5b505110610e03576008805461ff001916610100179055610e0f565b6008805461ff00191690555b6008805460ff191660011790556003546000818152600f602090815260408083206001600160a01b038f16808552908352928190205481519485529184018290528381018b90525190927f9164b2becbb10ef9dda7ed64a0ffb5c5efb14ce66936fc71f0eaf777c5d5aaea919081900360600190a260038054600101905560006004556008805462010000600160b01b031916620100006001600160a01b038e1602179055600289336000908152601160209081526040808320805495909404949094019092556001600160a01b039d909d168d5260109052909a20805490970190965550505050505050505050565b600c54600a54604080516370a0823160e01b81523060048201529051600093926001600160a01b0316916370a08231916024808301926020929190829003018186803b158015610f4e57600080fd5b505afa158015610f62573d6000803e3d6000fd5b505050506040513d6020811015610f7857600080fd5b50511015610fb75760405162461bcd60e51b815260040180806020018281038252602b8152602001806112c6602b913960400191505060405180910390fd5b610fc5600b54600c5461103e565b905090565b60055481565b6013602052600090815260409020546001600160a01b031681565b600f60209081526000928352604080842090915290825290205481565b600d5550565b600080600061101b610eff565b9050600554600d548161102a57fe5b069150600554821061103857fe5b50905090565b60007f00000000000000000000000000000000000000000000000000000000000000006001600160a01b0316634000aea07f00000000000000000000000000000000000000000000000000000000000000008486600060405160200180838152602001828152602001925050506040516020818303038152906040526040518463ffffffff1660e01b815260040180846001600160a01b0316815260200183815260200180602001828103825283818151815260200191508051906020019080838360005b8381101561111b578181015183820152602001611103565b50505050905090810190601f1680156111485780820380516001836020036101000a031916815260200191505b50945050505050602060405180830381600087803b15801561116957600080fd5b505af115801561117d573d6000803e3d6000fd5b505050506040513d602081101561119357600080fd5b50506000838152602081905260408120546111b3908590839030906111f1565b6000858152602081905260409020549091506111d0906001611238565b6000858152602081905260409020556111e98482611299565b949350505050565b60408051602080820196909652808201949094526001600160a01b039290921660608401526080808401919091528151808403909101815260a09092019052805191012090565b600082820183811015611292576040805162461bcd60e51b815260206004820152601b60248201527f536166654d6174683a206164646974696f6e206f766572666c6f770000000000604482015290519081900360640190fd5b9392505050565b60408051602080820194909452808201929092528051808303820181526060909201905280519101209056fe4e6f7420656e6f756768204c494e4b202d2066696c6c20636f6e74726163742077697468206661756365744f6e6c79204465706c6f7965722f4665654163636f756e742043616e205769746864726177204c494e4ba26469706673582212203d437786093e452ad444548d5b4ca0af7e48261a8bd3e4671d8493ba9664cf5764736f6c634300060c0033",
  "immutableReferences": {
    "742": [
      {
        "length": 32,
        "start": 4162
      }
    ],
    "744": [
      {
        "length": 32,
        "start": 2505
      },
      {
        "length": 32,
        "start": 4209
      }
    ]
  },
  "source": "// SPDX-License-Identifier: MIT\npragma solidity ^0.6.0;\n\nimport \"@chainlink/contracts/src/v0.6/VRFConsumerBase.sol\";\nimport './IERC20.sol';\n\ncontract RaffleLottery is VRFConsumerBase {\n\n    // fee parameters \n    uint public feePercent;\n    address payable public feeAccount; \n    \n    // current raffle parameters\n    uint public raffleId;\n    uint public ticketNumber;\n    uint public totalTickets;\n    uint public ticketPrice;\n    uint public winningTicket;\n    bool public isOpen = true;\n    bool public canRaffle = true;\n    address public latestWinner;\n\n    // Chainlink parameters and random number params for Chainlink VRF\n    address public vrf; //public key against which randomness is generated\n    address public linkToken;\n    bytes32 public keyHash;\n    uint256 public feeLink;\n    uint256 public randomResult;\n    bytes32 public reqId;\n\n    // mapping of entrants number Tickets bought in current raffle\n    mapping(uint => mapping(address => uint)) public numberTickets;\n\n    // mapping of entrants total winnings all raffles entered\n    mapping(address => uint) public totalWinnings;\n\n    // mapping of entrants total fees earned\n    mapping(address => uint) public feesEarned;\n\n    // mapping winners for each raffle\n    mapping(uint => address) public winners;\n\n    // mapping ticketNumber to entrant\n    mapping(uint => address) public ticketOwners;\n\n    // events \n    event Entered(address indexed _entrant, uint256 _raffleId, uint256 _numberTickets, bool _hasChange);\n    event Winner(address indexed _winner, uint256 _raffleId, uint256 _numberTickets, uint256 _winnings);\n    constructor\n        (\n            uint _feePercent, \n            uint _ticketPrice,  \n            uint _totalTickets, \n            address _VRF, \n            address _linkToken,\n            bytes32 _keyHash,\n            uint _feeLink\n        ) \n        VRFConsumerBase(\n            _VRF, // e.g 0xdD3782915140c8f3b190B5D67eAc6dc5760C46E9 VRF Coordinator on network e.g Kovan\n            _linkToken // e.g 0xa36085F69e2889c224210F603D836748e7dC0088 LINK Token on  network e.g Kovan\n        ) \n        public \n        {\n            feePercent = _feePercent; // percent of pool as fee to contract deployer(shared with anyone who calls completeRaffle())\n            feeAccount = msg.sender; // fee account set as deployer\n            ticketPrice = _ticketPrice; // price in wei single raffle ticket\n            totalTickets = _totalTickets; // total number of tickets for each raffle\n            \n            // VRF parameters\n            vrf = address(_VRF);\n            keyHash = _keyHash; // eg 0x6c3699283bda56ad74f6b855546325b68d482e983852a7a82979cc4807b641f4  Kovan Network KeyHash\n            feeLink = _feeLink; // e.g  = 0.1 ETH on Kovan\n            linkToken = _linkToken; // LINK Token address on relevant network\n        }\n\n    receive() external payable {}\n\n    /// @notice Funtion for entrant to pay ticketPrice and enter raffle\n    /// @param _numTickets number of raffleTickets entrant is buying\n    function enterRaffle(uint _numTickets) external payable {\n      // check to see if raffle has not already completed\n      require(isOpen == true, \"Raffle is not available\");\n      // check if raffle can be held: If VRF can be called\n      require(canRaffle == true, 'Raffle not available');\n      // check if buying allowable number of tickets\n      require(_numTickets >= 1 && _numTickets <= (totalTickets-ticketNumber), 'Invalid Number of Tickets' );\n      // check if not all tickets have not been bought\n      uint totalsCheck = ticketNumber + _numTickets;\n      require(totalsCheck <= totalTickets, 'All tickets sold');\n      // check if correct amount, if extra repay change\n      require(msg.value >= ticketPrice, 'Not enough to buy ticket');\n      bool _hasChange = false;\n      if(msg.value > (ticketPrice*_numTickets)) {\n          //msg.sender.transfer(msg.value - ticketPrice);\n          (bool refund, bytes memory refundData) = msg.sender.call{value: msg.value - (ticketPrice*_numTickets)}(\"\");\n          require(refund, \"Failed to send Ether\");\n          _hasChange = true;\n      }\n\n      // update variables\n      for(uint i=1; i <= _numTickets; i++) {\n          ticketOwners[ticketNumber] = msg.sender;\n          ticketNumber += 1;\n      }\n      numberTickets[raffleId][msg.sender] += _numTickets; \n      // if all tickets bought - close raffle\n      if(totalsCheck >= totalTickets) {\n          isOpen = false;\n      }\n      // emit Entered event\n      emit Entered(msg.sender,raffleId,_numTickets, _hasChange);\n\n    }\n    /// @notice If all raffle tickets bought anyone who participated in raffle can completeRaffle(earn fee) to determine winner and payout\n    function completeRaffle() external {\n\n        // only ticket holders can call function\n        require(numberTickets[raffleId][msg.sender] >= 1, 'Only Ticket Holders');\n\n        require(isOpen == false, 'Raffle is still open');\n        // get winning ticket & winner & number tickets bought \n        uint _winningTicket = getWinningTicket();\n        winningTicket = _winningTicket;\n        address _winner = ticketOwners[winningTicket];\n        winners[raffleId] = _winner;\n\n        // pay winnings and fees \n        uint _availableAmount = address(this).balance;\n        uint _feeAmount = (_availableAmount/100) * feePercent;\n        uint _winnings = _availableAmount - _feeAmount;\n        // send winnings to winner \n        (bool sentWinner, bytes memory dataWinner) = _winner.call{value: _winnings}(\"\");\n        require(sentWinner, \"Failed to send Ether\");\n        // send 50% fees to feeAcount\n        (bool sentFees, bytes memory dataFees) = feeAccount.call{value: _feeAmount/2}(\"\");\n        require(sentFees, \"Failed to send Ether\");\n        // send 50% fees to caller of function as incentive\n        (bool sentCaller, bytes memory dataCaller) = msg.sender.call{value: _feeAmount/2}(\"\");\n        require(sentCaller, \"Failed to send Ether\");\n        \n        // check if next round raffle can happen\n        if(IERC20(linkToken).balanceOf(address(this)) >= feeLink) {\n            canRaffle = true;\n        } else {\n            canRaffle = false;\n        }\n        \n        isOpen = true;\n   \n        uint numTickets = numberTickets[raffleId][_winner];// numTickets bought by winner\n        \n        // emit Winner event \n        emit Winner( _winner, raffleId, numTickets, _winnings);\n\n        // update variables \n        raffleId += 1;\n        ticketNumber = 0; // reset ticketNumber\n        latestWinner = _winner;\n        feesEarned[msg.sender] += (_feeAmount/2);\n        totalWinnings[_winner] += _winnings;\n        \n    }\n\n    function getWinningTicket() internal returns(uint) {\n        uint _winningTicket;\n        bytes32 reqId = getRandomNumber();\n        // retrieve randomNumber in state variable randomResult\n        _winningTicket = (randomResult % totalTickets);\n        assert(_winningTicket >= 0 && _winningTicket < totalTickets);\n        return _winningTicket;\n    }\n\n    /** \n     * Requests randomness \n     */\n    function getRandomNumber() public returns (bytes32 requestId) {\n        require(IERC20(linkToken).balanceOf(address(this)) >= feeLink, \"Not enough LINK - fill contract with faucet\");\n        return requestRandomness(keyHash, feeLink);\n    }\n\n    /**\n     * Callback function used by VRF Coordinator\n     */\n    function fulfillRandomness(bytes32 requestId, uint256 randomness) internal override {\n        randomResult = randomness;\n    }\n\n    function withdrawLink() external {\n        require(msg.sender == feeAccount, 'Only Deployer/FeeAccount Can Withdraw LINK');\n        canRaffle = false;\n        IERC20(linkToken).transfer(feeAccount, IERC20(linkToken).balanceOf(address(this)));\n    } \n}\n\n",
  "sourcePath": "/Users/zed/Desktop/DAPP_UNIVERSITY/NFT_MASTERCLASS/raffle_lottery_app/src/contracts/RaffleLottery.sol",
  "compiler": {
    "name": "solc",
    "version": "0.6.12+commit.27d51765.Emscripten.clang"
  },
  "schemaVersion": "3.4.1",
  "updatedAt": "2021-08-25T14:24:35.161Z",
  "networkType": "ethereum",
  "devdoc": {
    "kind": "dev",
    "methods": {
      "enterRaffle(uint256)": {
        "params": {
          "_numTickets": "number of raffleTickets entrant is buying"
        }
      }
    },
    "version": 1
  },
  "userdoc": {
    "kind": "user",
    "methods": {
      "completeRaffle()": {
        "notice": "If all raffle tickets bought anyone who participated in raffle can completeRaffle(earn fee) to determine winner and payout"
      },
      "enterRaffle(uint256)": {
        "notice": "Funtion for entrant to pay ticketPrice and enter raffle"
      },
      "getRandomNumber()": {
        "notice": "Requests randomness "
      }
    },
    "version": 1
  }
}