{
  "contractName": "LearningSolidity",
  "abi": [
    {
      "inputs": [],
      "name": "adding_values",
      "outputs": [],
      "stateMutability": "nonpayable",
      "type": "function"
    },
    {
      "inputs": [],
      "name": "get_student_result",
      "outputs": [
        {
          "internalType": "address[]",
          "name": "",
          "type": "address[]"
        }
      ],
      "stateMutability": "view",
      "type": "function",
      "constant": true
    },
    {
      "inputs": [],
      "name": "count_students",
      "outputs": [
        {
          "internalType": "uint256",
          "name": "",
          "type": "uint256"
        }
      ],
      "stateMutability": "view",
      "type": "function",
      "constant": true
    }
  ],
  "bytecode": "0x608060405234801561001057600080fd5b5061062e806100206000396000f3fe608060405234801561001057600080fd5b50600436106100415760003560e01c80635487729d146100465780638cfb9fe6146100505780638db616cf1461006e575b600080fd5b61004e61008c565b005b610058610286565b60405161006591906104e5565b60405180910390f35b610076610314565b6040516100839190610507565b60405180910390f35b60008073dee7796e89c82c36badd1375076f39d69fafe25273ffffffffffffffffffffffffffffffffffffffff1673ffffffffffffffffffffffffffffffffffffffff168152602001908152602001600020600260008201816000019080546100f490610597565b6100ff929190610321565b50600182018160010190805461011490610597565b61011f929190610321565b506002820160009054906101000a900460ff168160020160006101000a81548160ff021916908360ff1602179055509050506040518060400160405280600481526020017f4a6f686e000000000000000000000000000000000000000000000000000000008152506002600001908051906020019061019f9291906103ae565b506040518060400160405280600981526020017f4368656d69737472790000000000000000000000000000000000000000000000815250600260010190805190602001906101ee9291906103ae565b5060586002800160006101000a81548160ff021916908360ff160217905550600173dee7796e89c82c36badd1375076f39d69fafe2529080600181540180825580915050600190039060005260206000200160009091909190916101000a81548173ffffffffffffffffffffffffffffffffffffffff021916908373ffffffffffffffffffffffffffffffffffffffff160217905550565b6060600180548060200260200160405190810160405280929190818152602001828054801561030a57602002820191906000526020600020905b8160009054906101000a900473ffffffffffffffffffffffffffffffffffffffff1673ffffffffffffffffffffffffffffffffffffffff16815260200190600101908083116102c0575b5050505050905090565b6000600180549050905090565b82805461032d90610597565b90600052602060002090601f01602090048101928261034f576000855561039d565b82601f10610360578054855561039d565b8280016001018555821561039d57600052602060002091601f016020900482015b8281111561039c578254825591600101919060010190610381565b5b5090506103aa9190610434565b5090565b8280546103ba90610597565b90600052602060002090601f0160209004810192826103dc5760008555610423565b82601f106103f557805160ff1916838001178555610423565b82800160010185558215610423579182015b82811115610422578251825591602001919060010190610407565b5b5090506104309190610434565b5090565b5b8082111561044d576000816000905550600101610435565b5090565b600061045d8383610469565b60208301905092915050565b6104728161055b565b82525050565b600061048382610532565b61048d818561054a565b935061049883610522565b8060005b838110156104c95781516104b08882610451565b97506104bb8361053d565b92505060018101905061049c565b5085935050505092915050565b6104df8161058d565b82525050565b600060208201905081810360008301526104ff8184610478565b905092915050565b600060208201905061051c60008301846104d6565b92915050565b6000819050602082019050919050565b600081519050919050565b6000602082019050919050565b600082825260208201905092915050565b60006105668261056d565b9050919050565b600073ffffffffffffffffffffffffffffffffffffffff82169050919050565b6000819050919050565b600060028204905060018216806105af57607f821691505b602082108114156105c3576105c26105c9565b5b50919050565b7f4e487b7100000000000000000000000000000000000000000000000000000000600052602260045260246000fdfea2646970667358221220015eb359f248cdb6c1f3d8f7ad3866acc2bd26b0cd64777d12325ba87cdc9b3964736f6c63430008060033",
  "immutableReferences": {},
  "source": "// SPDX-License-Identifier: MIT\npragma solidity ^0.8.6;\n\ncontract LearningSolidity {\n     \n // Defining structure\n    struct Student {\n  \n        // Declaring different\n        // structure elements\n        string name;\n        string subject;\n        uint8 marks;\n    }\n      \n    // Creating mapping\n    mapping (address => Student) result;\n    address[] student_result;\n    Student student;\n      \n    //Function adding values to the mapping\n    function adding_values() public {\n      student\n          = result[0xDEE7796E89C82C36BAdd1375076f39D69FafE252];\n  \n        student.name = \"John\";\n        student.subject = \"Chemistry\";\n        student.marks = 88;\n        student_result.push(0xDEE7796E89C82C36BAdd1375076f39D69FafE252) ;\n  \n    }\n      \n     // Function to retrieve \n     // values from the mapping\n     function get_student_result(\n     ) view public returns (address[] memory) {\n        return student_result;\n    }\n  \n    // Function to count number \n    // of values in a mapping\n    function count_students(\n    ) view public returns (uint) {\n        return student_result.length;\n    }\n}\n",
  "sourcePath": "/Users/mateenmustafa/Desktop/defi-dapps-solidity-smart-contracts/step11_solidity_mappings/contracts/LearningSolidity.sol",
  "compiler": {
    "name": "solc",
    "version": "0.8.6+commit.11564f7e.Emscripten.clang"
  },
  "schemaVersion": "3.4.3",
  "updatedAt": "2021-09-14T07:19:37.956Z",
  "networkType": "ethereum",
  "devdoc": {
    "kind": "dev",
    "methods": {},
    "version": 1
  },
  "userdoc": {
    "kind": "user",
    "methods": {},
    "version": 1
  }
}